:020000040800F2
:10000000802D0020A9020008CF4F000833490008C6
:10001000CD4F000855210008997900080000000024
:1000200000000000000000000000000085550008EE
:10003000CD21000800000000415100089155000842
:10004000C3020008C3020008C3020008C30200087C
:10005000C3020008C3020008C3020008C30200086C
:10006000C3020008C3020008C3020008C30200085C
:10007000C3020008C3020008C3020008C30200084C
:10008000C3020008C3020008C3020008C30200083C
:10009000C3020008C3020008C3020008C30200082C
:1000A000C302000835560008C3020008C302000856
:1000B000C3020008415600084D560008C30200085C
:1000C000C3020008C3020008C3020008C3020008FC
:1000D000C3020008B95D0008C3020008C55D00083E
:1000E000C3020008C3020008C3020008C3020008DC
:1000F000C3020008C3020008C3020008C3020008CC
:10010000C3020008C3020008C3020008C3020008BB
:10011000C3020008D95A0008C3020008C30200083D
:10012000C3020008C3020008C3020008C30200089B
:10013000C30200080000000000000000C302000825
:10014000C3020008C3020008C3020008D14F000820
:10015000C3020008C3020008C3020008D15D000802
:10016000C3020008C3020008C3020008C30200085B
:10017000C3020008C30200080000000000000000E5
:10018000C3020008C302000800F002F800F07DF886
:100190000AA090E8000C82448344AAF10107DA45E2
:1001A00001D100F072F8AFF2090EBAE80F0013F0B7
:1001B000010F18BFFB1A43F0010318475C7F0000D2
:1001C0007C7F00000A444FF0000C10F8013B13F054
:1001D000070408BF10F8014B1D1108BF10F8015BA0
:1001E000641E05D010F8016B641E01F8016BF9D193
:1001F00013F0080F1EBF10F8014BAD1C0C1B09D1EA
:100200006D1E58BF01F801CBFAD505E014F8016B5B
:1002100001F8016B6D1EF9D59142D6D370470000ED
:100220000023002400250026103A28BF78C1FBD8FF
:10023000520728BF30C148BF0B607047662907F0DE
:10024000EF86642900F03881752900F0358178291E
:1002500000F06E81632900F05485002070471FB5BF
:1002600007F0D9FE9DE8030001F0EAF800F09AFDDE
:1002700004000020002107F041FEE06000F092FE43
:100280001FBD10B500F0F7FE10BD00F05FFF114676
:10029000FFF7E5FF07F0E0FC01F064F803B4FFF7B7
:1002A000F0FF03BC01F05EFA0948804709480047A7
:1002B000FEE7FEE7FEE7FEE7FEE7FEE7FEE7FEE716
:1002C000FEE7FEE704480549054A064B7047000073
:1002D000255600088901000880270020802D002075
:1002E000802900208029002053EA020C00F0698058
:1002F0002DE9F04B4FF00006002B1FBFB3FA83F53A
:1003000003FA05F424FA05F65E4012BF1643B2FA6A
:1003100082F502FA05F4C5F120051EBF22FA05FC9C
:1003200044EA0C04203556EA044C4FEA144418BF42
:10033000641C4FF000084FF00009904271EB030C71
:1003400039D3002919BFB1FA81F701FA07F6B0FADB
:1003500080F700FA07F6C7F120071EBF20FA07FC56
:1003600046EA0C062037B6FBF4FCA7EB0507103F66
:1003700007F01F0BCBF120060CFA0BFB2CFA06F64C
:1003800044BFB3460026202FA4BF5E464FF0000BAB
:100390005BEA060C08BF4FF0010B19EB0B09ABFB36
:1003A000027C48EB0608C01B06FB02CC0BFB03CC0F
:1003B00071EB0C01C1E70B46024641464846BDE8D9
:1003C000F08B13B54FF000004FF00001AFF3008049
:1003D000BDE81C40704700000FB4044910B503AAE3
:1003E000029800F09BFC10BC5DF814FB78260020FE
:1003F0000FB41CB5074B06AA7B44694600900598CC
:1004000000F05DFC0020694600F06CFC1CBC5DF84F
:1004100014FB0000E908000070B504468569006817
:10042000C10601D5302600E02026C00707D070BDE8
:10043000D4E9012130469047206A401C20626D1E9D
:10044000F6D570BD70B5044685690078C00707D140
:1004500070BDD4E9012120209047206A401C206211
:100460006D1EF6D570BD70B50C460546012A05D047
:100470002878800600D5EA69002302E0012305E020
:100480005B1C934202D2E05C0028F9D1A869E6180F
:10049000C01AA861286A184428622846FFF7BCFFE2
:1004A00004E0D5E9012114F8010B9047B442F8D3D8
:1004B0002846FFF7C7FF70BD2DE9F041064600242E
:1004C00010687529314616A510D0AFF300800028BA
:1004D00002DA404213A507E031688A0701D512A568
:1004E00002E0490704D511A5012401E0AFF3008023
:1004F00000210A2206F1240709E0B0FBF2FCB0FB60
:10050000F2F302FB1C00303078541846491C0028D6
:10051000F3D123462A463046BDE8F04100F061B9E8
:10052000000000002D0000002B0000002000000053
:1005300070B504460D4621461068AFF3008021884F
:10054000090502D50F4A7A4402E00E4A7A440E3277
:10055000002104F1240305E000F00F060009965D78
:100560005E54491C0028F7D120780023000704D5E9
:10057000702D02D009B1022311322046BDE870402F
:1005800000F02FB9F27A00002DE9F05F89460446A9
:100590004FF0000ADFF824B1FB44C0F820A0204649
:1005A000E168884700287DD0252806D0D4E90121BC
:1005B0009047206A401C2062F1E700255F462046F4
:1005C000E16888472028064607DB312E05D2B81996
:1005D00010F8200C08B10543F1E7A80701D525F074
:1005E0000405C4F81CA00027C4F818A02A2E09D0BE
:1005F000304607F0FAF938B304EB8708303EC8F804
:10060000186019E059F8041B204604EB8702916139
:10061000E1688847012F064618D1E069002820DAF2
:1006200025F020051DE0D8F8180000EB800006EB4F
:1006300040003038C8F818002046E1688847064670
:1006400007F0D3F90028EED1012F0AD02E2E08D1C1
:100650002046E16888477F1C0646022F45F02005AA
:10066000C4DBA069002803DA404245F00105A0611F
:10067000E80701D025F01005A6B1A6F14100192820
:1006800002D8203645F400654A46314620462560AA
:100690004D46FFF7D3FD60B1012807D0ED1D25F0D1
:1006A000070000E007E000F1080978E705F1040918
:1006B00075E730467AE7206ABDE8F09FC87A000007
:1006C000032A40F2308010F0030C00F0158011F87E
:1006D000013BBCF1020F624498BF11F801CB00F856
:1006E000013B38BF11F8013BA2F1040298BF00F8AA
:1006F00001CB38BF00F8013B11F0030300F0208369
:10070000083AC0F0088051F8043B083A51F804CB8D
:10071000A0E80810F5E7121D5CBF51F8043B40F853
:10072000043BAFF30080D20724BF11F8013B11F85E
:1007300001CB48BF11F8012B24BF00F8013B00F8A2
:1007400001CB48BF00F8012B70474FF0000204298D
:10075000C0F0128010F0030C00F01B80CCF1040CF0
:10076000BCF1020F18BF00F8012BA8BF20F8022B24
:10077000A1EB0C0100F00DB85FEAC17C24BF00F8CA
:10078000012B00F8012B48BF00F8012B70474FF0F8
:10079000000200B5134694469646203922BFA0E8D1
:1007A0000C50A0E80C50B1F12001BFF4F7AF0907DD
:1007B00028BFA0E80C5048BF0CC05DF804EB8900CE
:1007C00028BF40F8042B08BF704748BF20F8022B11
:1007D00011F0804F18BF00F8012B70477047704729
:1007E00070472DE9F0470D4699469246044600F1C0
:1007F00024080168880604D5E06921F01001216011
:1008000000E00120A84201DD471B00E00027A169AC
:100810007A1902EB0900081AA0612078C00602D4F8
:100820002046FFF7F9FD002608E0D4E901211AF877
:1008300006009047206A401C761C20624E45F4DB7F
:100840002078C0060AD52046FFF7E6FD06E0D4E989
:10085000012130209047206A401C2062381EA7F1F9
:100860000107F4DC07E0D4E9012118F805009047FE
:10087000206A401C2062281EA5F10105F3DC2046F9
:10088000FFF7E0FD2078000602D50220BDE8F087E2
:100890000120FBE770472DE9FF4F0C461E464FF045
:1008A000FF378BB0D2E90001DDF860800A908A46FC
:1008B000C1F30A5505B93D46002108464FF0000036
:1008C000BAF1000F00F4400005DA00EB80004FF4AD
:1008D000400101EA50004FEA9059B9F1010F00DDE3
:1008E000B9460A9850EA4A000ED044F61050A5F2D4
:1008F000FF3545432F14B8F1000F1ED07542291E55
:100900001EDDC9F100021CE0B8F1010F4FF000003C
:1009100001D0302103E0F24305E02154401CB042F5
:10092000FBDB30460022002121540B99C1F80880DE
:10093000C1E900200FB0BDE8F08FBD1B6D1CDEE7E4
:100940004A4600DA694206A800F0B6FA06AB93E818
:10095000070003AB83E8070050460A9900F09EFFAA
:100960008DE80700A0F500501F3800900398002D77
:100970000ADD42F21F014A460844002303A90390FE
:10098000684601F007FA09E0A0F500504A461F3812
:10099000002303A90390684601F011FA8DE80700CF
:1009A0000004000C03D04FF0FF30410800E0104677
:1009B000B8F1000F03D00022009215461EE0751E0C
:1009C00005D400F0F3F9303262556D1EF9D5B34607
:1009D0000122084302D000227F1C04E02078302846
:1009E00001D100227F1E002A099784D01DE0112D1D
:1009F00007DA00F0DBF9303262556D1C50EA010273
:100A0000F5D1084302D00098C8B10EE00021681E5D
:100A100005E0235C625C63542254401E491C814201
:100A2000F7DBAB46A81B401E0990002004F80B0022
:100A30000B98099AC0F80880C0E9002B7AE71126C4
:100A40004FF0000857E72DE9F04F88460446D21DC5
:100A500022F0070191B0D1E90001CDE90A0106F0C9
:100A60009CFF02460B98C00F01D02D2007E02068A4
:100A7000810701D52B2002E0202101EAC000032AD2
:100A8000099001D0072A05DB03464146204600F0C5
:100A9000D3F90BE12078800601D5E06900E006205B
:100AA000B8F1650F814606D0B8F1660F18D0B8F1DD
:100AB000670F70D131E00020B9F1110F009001DB18
:100AC000112301E009F101030AAA01A90CA8FFF70B
:100AD000E2FEDDE90C70002609F10105834647E0DE
:100AE00001204B4600904FF000470AAA01A90CA82C
:100AF000FFF7D1FEDDE90DB00C995D46002610B977
:100B000009F101000D18B9EB050003D4C0F1FF365F
:100B100009F10105A5EB09002BE0B9F1010F01DA9C
:100B20004FF001090020B9F1110F0090484601DD96
:100B3000112300E003460AAA01A90CA8FFF7ABFEA7
:100B4000DDE90C704D4600268346207800070AD464
:100B5000AB4500DA5D4601A8012D04DD411911F80D
:100B6000011C302907D04F4502DA17F1040F04DACF
:100B7000012082460FE06D1EEEE7002F02DCED1B28
:100B80003E4403E0781CA84200DD7D1CB81B00F148
:100B9000010A4FF000472078000703D4AA4501DB83
:100BA0004FF0FF3A0021B7F1004F0DF143088DF8E7
:100BB000431024D002202B23002F01DA7F422D2363
:100BC0000A21021EA0F1010000DC5FB197FBF1FCDD
:100BD00097FBF1F201FB1C7C17460CF1300C08F876
:100BE00001CDEEE7A8F1010003702188090501D5C8
:100BF000452100E06521A0F1010800F8011C0998D9
:100C00000FA9A1EB0807FF1D00B10120411901EB5D
:100C1000EA70A1693844081A401EA0612078C00615
:100C200002D42046FFF7F8FB099828B1D4E9012146
:100C30009047206A401C20622078C00622D52046BA
:100C4000FFF7EAFB1EE0002E04DBB34502DD01A83E
:100C5000805D00E03020D4E901219047206A401CEB
:100C60002062761CAAF101005FEA000A0AD100F0B6
:100C700099F8C0680168405CD4E901219047206A76
:100C8000401C2062281EA5F10105DCDC07E0D4E948
:100C9000012118F8010B9047206A401C2062381E81
:100CA000A7F10107F3DC2046FFF7CCFB032011B0CE
:100CB00041E6000001694A1C02610878704700B5EE
:100CC0008FB0CDE901310021059105497944CDE985
:100CD000031011466846FFF757FC0FB000BD000037
:100CE000E5FFFFFF0A6802F8010B0A60704710B5C4
:100CF000436913B1AFF3008001E0FFF7B4FB0120BB
:100D000010BD127800F124010A7000224A700122FD
:100D1000EDE711684FF0FF32E9E70000074B70B5CF
:100D20000D467B44FFF7CBFF0446284600F036F91A
:100D300010B14FF0FF3070BD204670BD5B6D0000FC
:100D400010B5203AC0F00B80B1E81850203AA0E866
:100D50001850B1E81850A0E81850BFF4F5AF5FEA9A
:100D6000027C24BFB1E81850A0E8185044BF18C94D
:100D700018C0BDE810405FEA827C24BF51F8043BF4
:100D800040F8043B08BF7047D20728BF31F8023B48
:100D900048BF11F8012B28BF20F8023B48BF00F8DC
:100DA000012B7047004870474027002030B5B0F154
:100DB0000A024FEA900E71F100034EEA817EB0EB19
:100DC0000E0061EB91014FEA101E4EEA017E10EB1E
:100DD0000E0041EB11114FEA102E4EEA016E10EB9E
:100DE0000E0041EB11214FEA104E4EEA014E10EB7E
:100DF0000E0041EB1141401841F100014FEAD000D3
:100E000040EA41704FEAD10110EB80054FEA8104BE
:100E100044EA907444EB01046D1944EB0404521B42
:100E2000A3414FF0000348BF0A3200D530BD401C3B
:100E300041F1000130BD00002DE9F0411F4604469C
:100E400003260168072A01F4006004DB08B116A537
:100E500005E016A503E008B115A500E015A521F0F1
:100E600010002060A069C01EA0610FB1401EA061EB
:100E70002046FFF7D1FA4FB1D4E901213846904717
:100E8000206A401C2062C01C206206E0206AFAE74B
:100E9000D4E9012115F8010B9047761EF8D22046BF
:100EA000FFF7D0FABDE8F0814E414E006E616E0052
:100EB000494E4600696E66002DE9F04781461646A8
:100EC0008AB0354878440DC88DE80D003248784422
:100ED000801C03AC0DC884E80D0041F69B3008442B
:100EE000372190FBF1F290FBF1F5A5F1800501FBB4
:100EF00012041B3C02D56442012000E00020DFF810
:100F000098A080460027FA44AAF1BE0A0EE0E00746
:100F10000AD03246684607EB470101230AEB8101FC
:100F200000F04DFF8DE8070064107F1C002CEED10F
:100F3000194F7F44AE3F19E0E80715D007EB0410C6
:100F40000DF1180A90E80E008AE80E00C068F04221
:100F500001D1981908903246012306A903A800F090
:100F60002EFF03AB83E807006D10641C002DE3D156
:100F70004FF0010332466946B8F1000F03A802D0D2
:100F800000F008FF01E000F01AFFC9E90001C9F80C
:100F900008200AB0BDE8F0872C720000007B00F04A
:100FA0008000704710B542485421FFF7F0FB4148DC
:100FB0005421FFF7ECFB40485421FFF7E8FB3F4981
:100FC0003B483C4A3F4B08603D490A603A4919603A
:100FD000531C0365481C1065012008653B48344AD2
:100FE00039A1784400F022F920B9384878440A3809
:100FF00000F0C1F937482F4A35A1784400F016F9BE
:1010000020B9344878440A3800F0B5F932482A4A01
:101010002FA1784400F00AF920B92F4878440A3803
:1010200000F0A9F940232248DC000021224600F00C
:10103000D9F820B125487844543800F09CF91D486F
:1010400022464023002100F0CDF820B12148784409
:10105000543800F090F9184822461023002100F07F
:10106000C1F8002806D01C487844BDE81040563826
:1010700000F081B910BD104870B5006D20F001047A
:101080000B4800F049F90B4800F046F90A4800F017
:1010900043F909E0206D20F00105204600F03CF9FD
:1010A000204600F078F82C46002CF3D170BD0000EB
:1010B0002426002078260020CC26002028010020AD
:1010C0002C01002030010020720000002671000079
:1010D0007700000012710000FE7000000EB5CDE92F
:1010E000000100F01FFB029069460120ABBE0EBD5F
:1010F00008B5694600900220ABBE08BD1FB58DE85B
:10110000070069460520ABBE04B010BD1FB58DE8D1
:101110000F0069460620ABBEF6E708B569460090A9
:101120000920ABBE08BD1CB5CDE9000169460A2007
:10113000ABBE1CBD704708B5694600900C20ABBE25
:1011400008BD000000487047202700207546FFF7C3
:10115000F9FFAE4605006946534620F00700854674
:1011600018B020B5FFF7AEF8BDE820404FF00006FC
:101170004FF000074FF000084FF0000B21F007017F
:10118000AC46ACE8C009ACE8C009ACE8C009ACE8C2
:10119000C0098D46704770B50446051F00F034F94C
:1011A0000068002C14BF446870BD002C18BFAC420E
:1011B0003CBF20466468F8D301680A18AA4218BFE9
:1011C000456003D12A680546114401602868411929
:1011D000A1421CBF6C6070BD6168696021680844F1
:1011E000286070BD70B5C468A50713D0650211D41E
:1011F000B2F5807F09D0B2F5007F06D0B2F5806FDE
:1012000008D1012300F1240106E05D1E6FF07F4646
:10121000B54201D3012070BD0161C361416024F476
:1012200070611143C160002070BD00002DE9F041E4
:101230000C4607461646104600F06EF82078611CF2
:1012400061280AD0722802D077283CD102E001251B
:10125000002405E00225042402E0082448F20205E7
:1012600011F8010B2B2806D0622809D011F8010CC7
:1012700074280AD00BE045F0030544F00204EFE7C0
:1012800045F0040544F00104EAE744F01004384650
:101290002146FFF723FF411C15D000213161716009
:1012A0004FF40071F560F1617061200704D530469C
:1012B0000222002100F022F9306D40F0010030657B
:1012C0003046BDE8F0810020FBE72DE9F0410D46F6
:1012D0000646104C206DC10704D0410804D020F010
:1012E0000104F7E722460EE0542000F0D8F807008A
:1012F0000ED0206D47F00101084354212065384687
:10130000FFF745FA3A4629463046BDE8F0418DE7F9
:101310000020D6E7242600202DE9F04704464FF0B0
:1013200000094FF0FF37C568D4E90486A80707D045
:10133000204600F093F93046FFF7DAFE002802DA83
:101340003846BDE8F087280502D54046FFF723FF61
:101350004C212046FFF71BFA206D20F0010020658C
:101360004846EEE710B50446AFF300802046BDE8DE
:101370001040FEF793BF10B500F0BAF9BDE8104079
:1013800000F0B0B94FF0013C50F8042B51F8043B89
:101390009A4221D1A2EB0C03934313EACC1317D149
:1013A00050F8042B51F8043B9A4215D1A2EB0C03E0
:1013B000934313EACC130BD150F8042B51F8043BA0
:1013C0009A4209D1A2EB0C03934313EACC13DBD06E
:1013D0004FF00000704700BFD01A01BAB1FA81F196
:1013E00001F0180122FA01F0CB40C1F12001DBB27B
:1013F000C0B2C01A2CFA01F3D11A914311EAC311F9
:10140000E6D1704770470000004870472827002049
:10141000704770477047704738B504460A46002049
:101420006946AFF30080002808BF38BD0246009926
:10143000204600F0A4F9012038BD012000F0F3B9E6
:10144000F8B5AFF30080054600200C46102000BF21
:101450000646A819A0420DD9324669460020AFF3CE
:101460000080070008BF00F0DEF90098A04218BF16
:101470000546C419FFF7C8FF05600746F01D20F0B8
:1014800007004619284600F073F9B44208BFF8BDBA
:10149000A21B31463868BDE8F84000F070B970B55D
:1014A0000646FFF7B1FF056806F10B0020F00704C0
:1014B000B4429CBF002070BD2B466A68BAB1106868
:1014C000A04210D304F1080188423CBF5068586024
:1014D00007D35168101941601168091B01605860F9
:1014E0001460101D70BD13465268002AE7D12146D2
:1014F0002846FFF791FF0028DED170BD2DE9F041AD
:10150000044616460D464769007B80072ED03846B4
:10151000FFF703FE50BB3EB3012E02D0022E25D1B1
:1015200004E0204600F045F905441DE03846FFF789
:1015300002FEE168002841F01001E16005DA204672
:1015400000F058F80120BDE8F081C9030BD56268AE
:10155000E16A914200D81146A26911442269891AB0
:10156000814200DD08460544002D01DA0220EAE749
:10157000E16A6068E268814206D29103E06203D5C5
:1015800022F4003141F01002A6690027AE4213DCBC
:10159000E16A814201D90B4600E0034603EB060CE9
:1015A0002369ACEB030CAC4506DD814201D98C46C6
:1015B00000E084469C4505D1A760276042F02000EA
:1015C000A5620DE0AD1BE669AE1B8142A66000D9A5
:1015D0000846C01A281A20605819606022F02000BE
:1015E00003490840E060002084F84870ABE7000041
:1015F000BFCFD7FFC16821F4001141F08001C16065
:1016000000218160016070472DE9F0478146144652
:101610000E464FF0FF383248D5685769054209D069
:101620003846A169FFF77FFD002811DB2C48C04335
:101630000540E5602B46324649463846FFF75EFDD9
:10164000A16920F00042B21A11440028A16103D020
:101650002046FFF7CFFF4046BDE8F08770B504464F
:101660000569C06A6168884200D80846E16821F4CB
:101670002011E160C90312D5A84208D02246411BBF
:101680002846FFF7C1FF10B14FF0FF3070BD0020BA
:10169000E562C4E90150E06820F48030E060002099
:1016A00070BD10B50446C06820F02000E060A16A5B
:1016B000A06988420DD02046FFF7D0FFE06820F4F3
:1016C000405040F01000E060A06AA0612069E06234
:1016D000606044F24001E0688843E06010BD0000B3
:1016E00010000200002801D000F03CB87047000054
:1016F00010B5014602A000F07DF8012010BD0000E9
:1017000053494752545245443A20526564697265C0
:1017100063743A2063616E2774206F70656E3A209F
:101720000000000010B5431C02E010F8011B71B16D
:101730008107FAD14FF0013202C88C1A8C4314EAA7
:10174000C211F9D0C01A0A0603D0C01E10BDC01ABB
:1017500010BD0A0401D0801E10BD0902FCD0401E3D
:1017600010BD000001491820ABBEFEE726000200B4
:1017700000210160C0E90110704710207047034646
:1017800040688C46002818BF88423CBF034640682A
:10179000F8D318681844884207D00CF1030020F0F1
:1017A0000700001D411A521A0146081D0A60FFF782
:1017B000F2BC10B50146C268900703D0900607D569
:1017C000886A0AE000F03EF801210160881E10BD21
:1017D0008B69486818440B69C01A91F848301BB1EE
:1017E00091F84910401A10BD1103FCD50028FADD0C
:1017F000401E10BD70B505460C460A2000E06D1C69
:1018000000F018F835B128780028F8D102E0641CFF
:1018100000F010F814B120780028F8D1BDE870402D
:101820000A2000F007B810B500F010F8BDE810402D
:10183000FFF758BF08B569468DF800000320ABBE1E
:1018400008BD0000004870472027002010B501287F
:1018500005D0002103A0FFF7CDFF012010BD09A195
:10186000F8E7000053494752544D454D3A204F7513
:1018700074206F662068656170206D656D6F727988
:10188000000000003A2048656170206D656D6F7240
:101890007920636F72727570746564005FEA400C42
:1018A00008BF91F0000F4FEA8C234FEAC12243EAB0
:1018B00051514FEA1C5018BF00F5F0404FEA30007C
:1018C00018BF41F000415FEA6C5C00F02980BCF178
:1018D000FF3F08BF40F080407047130C06BF120462
:1018E0004FF0100C4FF0000C130E04BF12020CF15D
:1018F000080C130F04BF12010CF1040C930F04BF6A
:1019000092000CF1020CD30F04BF52000CF1010C39
:1019100011464FF00002A0F11F00A0EB0C00704731
:1019200011F0004F08BF704731F000413FF4D5AFD0
:101930000B0C06BF09044FF0100C4FF0000C0B0EFF
:1019400004BF09020CF1080C0B0F04BF09010CF1D4
:10195000040C8B0F04BF89000CF1020CCB0F04BFE9
:1019600049000CF1010CCCF12003A0EB0C0022FA91
:1019700003F302FA0CF241EA030100F1010070479F
:1019800020F07F4C80EA030023F07F47ACEB070395
:1019900003F57C5300F0004003F1FF032DE980497B
:1019A0004FEA154B09B44FEA144325EA0B4E24EADB
:1019B00003480FF2042606EB132749083E785FEA36
:1019C000320203FB0667C7F5000707FB06F64FEA7E
:1019D00054374FEAD64606F1020607FB066CCCF1F7
:1019E000005C4FEA1C472CEA074C07FB06F40CFB93
:1019F00006F504EB15464FEA961634BF00204FF06B
:101A000000404FEAD13706FB07FC4FEA1C4C0CFBA9
:101A10000BF7D21B03FB0CF761EB07010CFB0EF776
:101A2000B0EB074072EB17420CFB08F734BFA2EB98
:101A30000742B2EB074261EB17414FEA0C444FEA11
:101A4000910706FB07FC4FEA1C4C0CFB0BF7B0EBB5
:101A5000C74072EB573203FB0CF734BFA2EBC7420F
:101A6000B2EBC74261EB57310CFB0EF7B0EBC7008E
:101A700072EB57720CFB08F734BFA2EBC702B2EB54
:101A8000C70261EB5771039F4FEA816141EA9211EE
:101A900004EBCC044FEAD1374FEA826206FB07FC25
:101AA00042EA90124FEA80604FEA1C4C0CFB0BF7A5
:101AB000D21B03FB0CF761EB07010CFB0EF7B0EB3D
:101AC000074072EB17420CFB08F734BFA2EB07424A
:101AD000B2EB074261EB17414FEA8C554FEA910791
:101AE00004EB9C2406FB07FC4FEA1C4C0CFB0BF799
:101AF000B0EBC74072EB573203FB0CF734BFA2EBDD
:101B0000C742B2EBC74261EB57310CFB0EF7B0EBAB
:101B1000C70072EB57720CFB08F734BFA2EBC70289
:101B2000B2EBC70261EB577115EB4C254FEA8161AF
:101B300041EA92114FEA82624FEAD13742EA9012AB
:101B400006FB07FC44F100044FEA80604FEA1C4C9E
:101B50000CFB0BF7D21B03FB0CF761EB07010CFB33
:101B60000EF7B0EB074072EB17420CFB08F734BFDF
:101B7000A2EB0742B2EB074261EB174115EB1C15D4
:101B80004FEA813141EA92414FEA823242EA904281
:101B90004FEA80304FEA0C7644F1000448EA0343F0
:101BA0004EEA0B484FF0000EB2EB080C71EB030746
:101BB00024BF624639464EEB0E0E4FF0000B001864
:101BC000524149414BEB0B0BB2EB080C71EB030795
:101BD0007BF1000B24BF624639464EEB0E0E4FF0F0
:101BE000000B0018524149414BEB0B0BB2EB080CB8
:101BF00071EB03077BF1000B24BF624639464EEBC5
:101C00000E0E51EA020718BF46F0010616EB0E76DB
:101C100055F1000254F1000103D5BDE88901BDE88A
:101C20000088BDE88901BDE80048B619524141EB82
:101C30000101A3F10103704780807F7E7D7C7B7A68
:101C40007978777676757473727171706F6E6E6D68
:101C50006C6C6B6A6A69686867666665646463630E
:101C600062616160605F5F5E5E5D5D5C5C5B5B5A94
:101C70005A59595858575756565555555454535301
:101C800052525251515050504F4F4F4E4E4D4D4D5C
:101C90004C4C4C4B4B4B4A4A4A49494948484847A7
:101CA00047474746464645454544444444434343E5
:101CB0004342424242414141002B9C4630D477008E
:101CC0002BD01CB54FEA370703B44FF010004FF08C
:101CD0001001BAF1000F06D0BCF1000FDCBF40F0DC
:101CE000080040F008014FF000000FBCBDE81040B4
:101CF0000BF1010BBBF1010F08BF5FEA170722BF11
:101D000012F1010211F101014FF0004143F1000312
:101D100000F0004043EA00007047F9D35708D0E7CD
:101D200046EA064613F1400F4FEA16461FDD13F14F
:101D3000200FDFBF16430A46002120335B42BED08E
:101D4000C3F1200746EA064602FA07F74FEA1646AD
:101D500046EA0706C3F1200722FA03F201FA07F761
:101D600021FA03F14FF0000342EA0702A7E746EA2F
:101D7000020646EA06464FEA164646EA0106BCBF98
:101D800046EA0646360C4FF000034FF000024FF0D3
:101D9000000194E72DE9804C9A46934670B491E88F
:101DA000380007C831EA400C48BF34EA430C03D579
:101DB000FFF7E6FDFFF780FFF0BCBDE8008C2DE9E2
:101DC000804C9A46934670B491E8380007C810F0EA
:101DD000804F08BF13F0804F03D100F005F8FFF7E4
:101DE0006BFFF0BCBDE8008C20F07F4780EA030069
:101DF00023F07F4C07EB0C03A3F57C5300F000406D
:101E0000A3F1FE0392F0000F00F0B38095F0000FF5
:101E100000F077802DE901494FEA11404FEA14465E
:101E200021EA004800FB06FC24EA064708FB06F608
:101E300007FB08F800FB07F718EB06484CEB164CBD
:101E40004FEA124B18EB07484FEA15464CEB174088
:101E500022EA0B4E0BFB06FC25EA06470EFB06F6B4
:101E600007FB0EFE0BFB07F71EEB064E4CEB164C6A
:101E70004FF000061EEB074E4CEB174B18EB0B0810
:101E800040F1000018EB0E0B58EB000840F1000089
:101E90008F1A4FF000013CBFC943661B14BFB5EB5E
:101EA000040C00213CBFC943F61B4FEA17444EEA1D
:101EB0008E0E27EA04454FEA1C4704FB07622CEA12
:101EC000074C05FB07F70CFB05F604FB0CFC16EBB7
:101ED000074642EB174216EB0C4642EB1C421BEB4B
:101EE000060658EB0202414146EA9E0601D5BDE8CE
:101EF0000189B619524141EB0101A3F10103BDE88B
:101F000001894FEA14454FEA114724EA054621EAC0
:101F1000074C05FB07F406FB07F70CFB06F105FB76
:101F20000CFC11EB074144EB17444FEA124711EB4D
:101F30000C4144EB1C4422EA074C05FB07F206FB6C
:101F400007F70CFB06F605FB0CFC16EB074642EB0D
:101F5000174216EB0C4642EB1C456A1854F100017F
:101F600048BF7047B619524141EB0101A3F101038B
:101F7000704795F0000F37D04FEA11424FEA1447EF
:101F800021EA024624EA074C02FB07F106FB07F7A9
:101F90000CFB06F402FB0CFC14EB074441EB17416D
:101FA0004FEA154714EB0C4441EB1C4125EA074C62
:101FB00002FB07F506FB07F70CFB06F602FB0CFC21
:101FC00016EB074645EB174516EB0C4645EB1C4256
:101FD000121951F1000148BF7047B619524141EB47
:101FE0000101A3F1010370474FEA14454FEA11477D
:101FF00024EA054621EA074C05FB07F106FB07F733
:102000000CFB06F24FF0000605FB0CFC12EB07423E
:1020100041EB174112EB0C4251EB1C4148BF70479A
:10202000921841EB0101A3F101037047464910B535
:102030004A6822F440324A604A6843681A434A6058
:1020400001684A6822F480724A6001684A6803693C
:1020500042EA03224A6001684A6822F040724A60FC
:1020600001684A6883681A434A6001688A6822F4F2
:1020700000628A6001688A68C3681A438A60816A5C
:102080006FF07062D14201688A6822F070628A60E3
:1020900001688A680CD0836A1A438A6001688A687A
:1020A00022F040528A6001688A68C36A1A4301E0DC
:1020B00022F040528A6001688A6822F002028A6037
:1020C00001688A68037E42EA43028A6090F8201021
:1020D000002901684A680FD042F400624A60016832
:1020E0004A6822F460424A6001684A68174C436AB1
:1020F00004EB43331A4301E022F400624A600168B2
:10210000CA6A22F47002CA620168CA6A838B104CE0
:1021100004EB03531A43CA6201688A6822F400720E
:102120008A6001688A6890F8303042EA43228A6007
:1021300001688A6822F480628A6001688A6840695E
:1021400042EA8020886010BD0023014000E0FFFFCC
:102150000000F0FFFEE700207047002070470000FD
:1021600010B500220449054804F018F80449034852
:1021700004F007F8002010BD20170020440A0020BA
:10218000200F002010B50146034803F0FAFF024873
:1021900003F0D0FF002010BD440A0020002070474B
:1021A0000A46094910B5D1F8BC12D1F8141209B188
:1021B000012010BD0146044803F0F0FFBDE81040C7
:1021C000014804F065B80000440A0020704772B668
:1021D000FEE7000078B50024009490F83C20012A26
:1021E00019D0012280F83C200A6807250368092AD3
:1021F00013D9DE680A3A02EB42029540AE43DE6034
:102200000A788B680A3A02EB420293400268D5686A
:102210002B43D36010E0022078BD1E6902EB42021E
:102220009540AE431E610A788B6802EB42029340F0
:10223000026815692B4313614A681F25072A13D2C8
:1022400003685E6B521E02EB82029540AE435E63F2
:102250000A8893B20A79521E02EB82029340026806
:10226000556B2B43536327E003680D2A12D21E6B74
:10227000D21F02EB82029540AE431E630A8893B2DE
:102280000A79D21F02EB820293400268156B2B433E
:10229000136311E0DE6A0D3A02EB82029540AE4311
:1022A000DE620A8893B20A790D3A02EB8202934009
:1022B0000268D56A2B43D362164B0568144A9D42C7
:1022C00006D10D68122D03D1556845F4800555607F
:1022D00005689D4218D10B68102B01D0112B13D12A
:1022E000536843F400035360096810290CD10A496C
:1022F0000A4A0968B1FBF2F101EB8101490000E0F3
:10230000491E00910029FBD180F83C40002078BD97
:1023100000230140002001400C00002040420F003B
:1023200070B504004FF0000603D0206C002510B1FA
:1023300007E0012070BD204600F01CF8656484F8B9
:102340003C50206CC00610D4206C20F4885040F023
:10235000020020642046FFF769FE6564206C20F0CF
:10236000020040F00100206400E0012684F83C50A7
:10237000304670BD10B586B0044614216846FEF79D
:1023800006FA1149206888421CD1104800210268D1
:1023900042F480720260006800F4807005900B487F
:1023A0001438026842F001020260006800F0010087
:1023B0000590382000900320CDE9010169460448CA
:1023C00000F076F806B010BD00200140443802400D
:1023D000000002402DE9F0410446876D00F062F9EB
:1023E000054694F835000026022806D08020606556
:1023F00084F834600120BDE8F0812068016821F094
:10240000160101602068416921F080014161206C62
:1024100008B9A06C20B12068016821F008010160B2
:102420002068016821F0010101600CE000F03AF938
:10243000401B052807D920206065032084F835005B
:1024400084F83460D7E720680068C007EED194F8BC
:102450005C103F208840B860012084F8350084F883
:1024600034600020C7E790F83510022903D080219E
:10247000416501207047052180F83510006801682A
:1024800021F00101016000207047000070B5044692
:1024900000F008F90546601C02D0044800780444A6
:1024A00000F000F9401BA042FAD370BD00000020EC
:1024B0002DE9F84FDFF89C910022A9F1040B0327C6
:1024C0004FF00F0C09F1040AABF1040E01250B6863
:1024D00095402B40AB426ED10C7904F00304012CE3
:1024E00001D0022C15D18668540007FA04F826EAB8
:1024F0000806D1F80C8008FA04F848EA0608C0F883
:1025000008804468AC430D79C5F300159540254318
:1025100045600C79E443A40708D0C568540007FA65
:1025200004F6B5438E68A6402E43C6600C7904F0CD
:102530000304022C11D1D40800EB8406356A540739
:10254000E40E0CFA04F825EA0805D1F8108008FA20
:1025500004F848EA0508C6F820800568540007FA20
:1025600004F6B5430E7906F00306A6402E43066036
:102570004C6814F4403F66D0374C256845F48045DC
:102580002560246822F0030504F480440094334C51
:1025900005EB0408D8F808589407260F0CFA06F43F
:1025A000A5432F4CA04201D1002424E02D4CA04291
:1025B00002D101241FE046E02B4CA04201D10224AD
:1025C00019E02A4CA04201D1032414E0284CA04277
:1025D00001D104240FE0274CA04201D105240AE0D8
:1025E000254CA04201D1062405E0244CA04201D193
:1025F000072400E00824B4402C43C8F80848D9F860
:1026000000404D464E689C43F60200D51C432C60AA
:10261000DAF8004055464E689C43B60200D51C438C
:102620002C60DBF800405D464E689C43B60300D545
:102630001C432C60DEF8004075464E689C43F60350
:1026400000D51C432C60521C102AFFF43FAFBDE89C
:10265000F88F0000083C014044380240003001403F
:10266000000002400004024000080240000C02404A
:10267000001002400014024000180240001C0240FA
:102680000069084000D001207047426921EA020336
:102690000A4043EA0241816170470AB18161704793
:1026A0000904FBE701488068704700000000002033
:1026B00070B5040025D094F83D00002520B984F8B9
:1026C0003C50204600F0B8F8242084F83D002068F3
:1026D000016821F0010101602068016841F40041B6
:1026E00001602068016821F40041016000F028FFCA
:1026F0004D4B6168994201D84C4900E04C498842F1
:1027000001D2012070BD4B492268B0FBF1F156683F
:1027100026F03F060E43566062689A4206D94FF48F
:10272000967251434FF47A72B1FBF2F12268491C60
:10273000166A26F03F06314311626168994210D84B
:102740004900401EB0FBF1F2521CC2F30B02042AF6
:1027500001D2042022E0B0FBF1F0401CC0F30B00DA
:102760001CE0A268F2B301EBC10303EB0116431EA8
:10277000B3FBF6F35B1C43F480431B0549D092B3D3
:1027800001EBC10202EB0111401EB0FBF1F0401C55
:10279000C0F30B0040F4804040F400402168CA6957
:1027A0004CF6FF739A431043C861D4E90710014304
:1027B0002068026822F0C00211430160D4E90301DD
:1027C00001432068826848F2FF339A4311438160D5
:1027D000D4E9051001432068C26822F0FF021143CA
:1027E000C16001E00EE016E02068016841F00101DF
:1027F00001602564202084F83D00256384F83E5064
:10280000002070BD01EB4106431EB3FBF6F35B1CD9
:10281000B3E70120C2E701EB4101401EB0FBF1F03C
:10282000401CC0F30B00B7E7A086010080841E00A7
:1028300000093D0040420F0010B586B00446142147
:102840006846FDF7A4FF14492068884221D1134847
:102850000021026842F002020260006800F00200FB
:1028600005904FF4407000901220CDE90101032043
:1028700003900420049069460948FFF719FE0748B1
:102880001030016841F400110160006800F400108C
:10289000059006B010BD00000054004030380240E2
:1028A0000004024002488168027811448160704748
:1028B000000000200B4810B5016841F40071016070
:1028C000016841F480610160016841F48071016038
:1028D000032000F06FF80F2000F006F800F024F855
:1028E000002010BD003C024070B50D4D04464FF471
:1028F0007A712878B1FBF0F00A490968B1FBF0F071
:1029000001F0C0F848B9102C07D200222146501E11
:1029100000F030F800206C6070BD012070BD000038
:10292000000000200C0000200A4808B5016841F4AE
:1029300080410160006800F4804000900548001F5D
:10294000016841F080510160006800F08050009003
:1029500008BD000044380240002809DB00F01F02D7
:10296000012191404009800000F1E020C0F80011F1
:1029700070470000F0B40E4B1B68C3F30223C3F191
:102980000704042C00D904241D1D072D01D20023A7
:1029900000E0DB1E012606FA04F56D1E0D409D4089
:1029A0009E40761E164045EA0601F0BC05F00DB8C3
:1029B0000CED00E0064A00F0070110684FF6FF0337
:1029C000184040EA012003490843106070470000A6
:1029D0000CED00E00000FA0570470068416200203D
:1029E0007047F0B50368586A39B19C6A4FF4827534
:1029F00000EB144400204E1E0AE040EA02409862B8
:102A00000FE005EB8007DF59401C04EB1744C0B210
:102A1000B042F6D344EA02404FF4807202EB8101E7
:102A200058500020F0BDD0F8E00403F0C6BE01EB22
:102A3000C10200EB8202D0F8E004126A03F019BE72
:102A400001EBC10200EB8202D0F8E004D2F8602270
:102A500003F068BED0F8E00403F0B1BE0A0601F04E
:102A60000F0101EBC10100EB810101D5143101E03F
:102A700001F51571006804F08BBD70B504460B06B6
:102A800001F00F0000EBC00104EB81014FF00102E7
:102A90004FF0000502D54A75143103E081F8555214
:102AA00001F51571087094F89404012808D084F891
:102AB0009424206804F08AFA84F89454002070BDAD
:102AC000022070BD70B5044601F00F0022799042DB
:102AD00001D9012070BD0B0601F00F0101EBC1010E
:102AE00004EB81014FF001024FF0000502D54A7559
:102AF000143103E081F8555201F515718D7008709D
:102B000094F89404012808D084F89424206804F0F0
:102B1000CBFB84F89454002070BD022070BD01F0FE
:102B20000F0101EBC10100EB8100D0F86802704792
:102B30002DE9F04104460F0601F00F0000EBC00143
:102B400004EB81014FF001064FF0000502D54E75F0
:102B5000143103E081F8555201F51571C2F30A02F0
:102B600008708A600B714A7802B14883022B00D149
:102B70004D7194F89404012809D084F89464206875
:102B800004F076F9284684F89454BDE8F0810220D8
:102B9000FBE710B501F00F0404EBC40100EB810169
:102BA000C1E998230023C1F8683281F8553281F8D1
:102BB0005442837901F51571012B00D1CA618279E4
:102BC000006804F0C9FB002010BD70B504460D4636
:102BD00001F00F002179884201D9012070BD29063A
:102BE0004FF000064FF0010206D500EBC00104EBE8
:102BF00081014A75143107E005EBC50104EB810141
:102C000081F8556201F515718A70087094F8940482
:102C1000012807D084F89424206804F071FB280769
:102C200002D007E0022070BDA17904F29C42206826
:102C300004F00EFB84F89464002070BD10B501F020
:102C40000F0404EBC40100EB8101C1E90823002358
:102C50008B6201234B7501F8144F8379012B00D14E
:102C6000CA618279006804F077FB002010BD000083
:102C70002DE9F84F05680446284604F024FD002895
:102C80007DD1206804F04BFD002878D0D5F80808E5
:102C9000C0F30D20C4F8D404206804F040FD800780
:102CA00004D52068416901F002014161206804F007
:102CB00036FDC10604F29C40009034D5206881693D
:102CC00021F0100181612F6A07F00F0000EBC000B6
:102CD00004EB8006C7F3434006F51576022802D0C0
:102CE000062811D01AE047F6F070074216D0C7F355
:102CF0000A1217462846F16804F015FDF0683844BA
:102D0000F0607069384408E008222846009904F011
:102D10000AFD7069C7F30A1108447061206881696F
:102D200041F010018161206804F0F9FC00034FF0CC
:102D3000010B7AD50026206804F0D0FC8046DFF82D
:102D400078A46FE05FEAC87069D0F1B2206804F03F
:102D5000DEFC0746C00707D005EB4611C1F808BBEB
:102D60003146204602F03AF9380722D505EB4611E4
:102D70000820C1F8080B2068D0F8409000E018E265
:102D800000EB4610D0F8082BD14505D9110403D526
:102D90004FF40041C0F8081B204600F0F0FAD1457E
:102DA00007D9A079012804D120680121009A04F0F4
:102DB0004FFAF80604D505EB46111020C1F8080BB0
:102DC000B8071DD56869000605D5D5F8040840F494
:102DD0008061C5F8041806EBC60004EB800090F88B
:102DE000571200F51570012905D10021C170F1B20B
:102DF000204600F0E7F905EB46110220C1F8080B68
:102E0000B80604D505EB46102021C0F8081BB8040D
:102E100005D505EB46104FF40051C0F8081B4FEAEA
:102E20005808761CB8F1000F8CD1206804F077FCAC
:102E300040036DD5206804F04AFC8046002664E01B
:102E40005FEAC8705ED0F1B2206804F04EFC07461D
:102E5000C00723D006F00F010BFA01F0D5F83418A3
:102E60008143C5F8341805EB4610C0F808B9A079BD
:102E700001280FD106EBC60004EB8000D0E9072142
:102E80001144016236B9606A20B920680121009AB4
:102E900004F0DEF9F1B22046FFF7C9FD380704D58A
:102EA00005EB46110820C1F80809F80604D505EB22
:102EB00046111020C1F80809780604D505EB461024
:102EC0004021C0F80819B80716D53146284604F045
:102ED000CFFB06EBC60004EB8000C17D1430012956
:102EE00005D10021C170F1B2204600F067F905EB71
:102EF00046110220C1F80809380603D5314620469C
:102F000002F0D2F84FEA5808761CB8F1000F97D1BA
:102F1000206804F004FC002811DAD5F8040820F039
:102F20000101C5F8041894F8CC0401282BD02046E0
:102F300000F00AFA2068416901F00041416120680F
:102F400004F0EDFB00050BD5D5F80808C00702D04A
:102F5000204600F03DFA2068416901F400614161BA
:102F6000206804F0DCFBC00467D5D5F8040820F025
:102F70000101C5F804181021206804F079FB002134
:102F80004FF67F3220E0002084F8CC040146204632
:102F9000FFF722FDCEE705EB4110C0F80829D0F875
:102FA000003923F40013C0F80039C0F8082BD0F81A
:102FB000003B23F40013C0F8003BD0F8003B43F083
:102FC0000063C0F8003B491C20798842E3D8D5F85B
:102FD0001C0840F00111C5F81C18E07B00282846A9
:102FE0000DD0D0F8840840F00B01C5F88418D5F84E
:102FF000440840F00B012846C5F844180DE0D0F80D
:10300000140842F22B010843C5F81408D5F810083B
:1030100040F00B012846C5F81018D0F8000820F43D
:10302000FE61C5F80018A1792068009A04F010F933
:103030002068416901F480514161206804F06FFB10
:10304000800415D5206803F053FF206804F02EFBA0
:10305000E07100F06FFA0146E279206804F0C2FBEB
:10306000204600F05BF92068416901F4005141619C
:10307000206804F054FB000707D5204600F068F9EB
:103080002068416901F008014161206804F047FBB4
:10309000000615D5A86920F08001A96101260CE081
:1030A00006EBC60004EB800090F85702012803D11C
:1030B000F1B22046FFF7D2FC761C2079B042EFD85F
:1030C000206804F02CFBC0021FD501265F4614E0E7
:1030D00005EB4610D0F8001906EBC60004EB8000A3
:1030E000027E012A08D1002906DAC775F0B240F045
:1030F00080012046FFF7B2FC761C2079B042E7D869
:103100002068416901F480114161206804F007FBE7
:10311000800231D501205B4626E005EB4011D1F855
:10312000001B00EBC00204EB820292F85862012EF1
:1031300019D1002917DA94F8D46401F4803106F02B
:103140000106B1420FD182F85732A96941F08002DD
:10315000AA616969090606D4D5F8040840F400702C
:10316000C5F8040803E0401C21798142D5D82068C5
:10317000416901F400114161206804F0D0FA400077
:1031800007D52046FFF74FFC2068416901F08041D8
:103190004161206804F0C3FA40070AD520684568F9
:1031A000680702D52046FFF755FC2068416829438F
:1031B0004160BDE8F88F00000A30544FD0F8E004B9
:1031C00003F04FBBD0F8E00403F05FBBF8B5040098
:1031D00005D094F895042668002510B106E001207A
:1031E000F8BD84F89454204600F056F8032084F883
:1031F0009504B6F1A04F00D1A571206804F022F823
:10320000207C8DF8000094E80F0003F07FFE02267A
:10321000B0BB0021206804F0A5FA88BB002101277B
:103220000CE001EBC10004EB800047750175C1851E
:103230000576C5610562491CC9B24562207988429C
:10324000EFD8002111E001EBC10004EB800080F811
:10325000555280F8541280F85852C0F85C52C0F8A9
:103260006052491CC9B2C0F8645220798842EAD839
:10327000207C8DF8000094E80F0003F02BFF10B1C4
:1032800084F89564ABE7657484F89574206803F05E
:1032900013FF0020F8BD000010B586B004461421CD
:1032A0006846FDF774FA2068B0F1A04F2FD1194895
:1032B0000021026842F001020260006800F0010093
:1032C00005904FF4C05000900220CDE90101032089
:1032D00003900A20049069460F48FFF7E9F80D486B
:1032E000001D016841F0800101600A481430016846
:1032F00041F4804101600068002200F480400590A4
:1033000001214320FFF736FB4320FFF725FB06B0E2
:1033100010BD0000303802400000024070B5044685
:10332000C079012570B1022801D0FEF750FF29466F
:10333000D4F8E00403F017FBD4F8E004BDE87040D3
:1033400003F0CCBA0025F2E7D0F8E00403F0F4BAB9
:10335000D0F8E00403F0FABA10B5044690F89404EB
:1033600001280AD0012084F894046174206804F0D4
:1033700027FA002084F8940410BD022010BDD0F874
:10338000E02400F29C41104603F0F9BA10B504465F
:10339000006894F89414012909D0012184F8941448
:1033A000C168490609D5617B012902D005E00220E8
:1033B00010BD816B41F480318163206804F036F9DF
:1033C000206803F06BFE002084F8940410BD000018
:1033D00010B50446D0F8E00403F013FB2068D0F8E1
:1033E000001E41F00101C0F8001EE07A002804D060
:1033F0000248016841F00601016010BD10ED00E0D7
:103400002DE9F0470D46040065D0DFF81491D9F896
:103410000000EFB200F00700A84207D289F8007060
:10342000D9F8000000F00700A84254D120683D4EB2
:10343000810712D5400703D5306840F4E050306072
:103440002078000703D5306840F460403060306871
:10345000A16820F0F000084330602078C0072DD02C
:10346000304960680839012812D0022813D0032897
:1034700011D00968890700292DDA316821F003018C
:1034800001433160FFF70EF9804641F2883A0EE0C1
:1034900009688903EFE709688901ECE7FFF702F99A
:1034A000A0EB0801514502D90320BDE8F087306840
:1034B000616800F00C00B0EB810FEFD1D9F800107B
:1034C000484601F00701A94207D90770006800F0DB
:1034D0000700A84201D00120E7E72078400705D582
:1034E0003068E16820F4E05008433060207800073D
:1034F00006D53068216920F4604040EAC1003060A0
:1035000000F03EF83168084AC1F30311515CC8402D
:103510000649086006480068FFF7E6F90020C4E79E
:10352000003C024008380240248000080C000020C3
:103530000400002001480068704700000C000020D3
:103540000448054900680968044AC1F38221515CB6
:10355000C84070470C000020083802403480000842
:103560000448054900680968044AC1F34231515CC6
:10357000C84070470C000020083802403480000822
:10358000154810B5006810F00C01144813D0431012
:1035900004290FD008290ED10F4C241F216801F0F7
:1035A0003F022168490207D52068C0F38810A0FBBC
:1035B000030106E0184610BD2168C1F38811A1FB84
:1035C00000010023FCF790FE2168C1F30141491C72
:1035D0004900B0FBF1F010BD083802400024F400AF
:1035E0002DE9F84F040075D02078DFF838A3C00724
:1035F000AAF1040548D00AF104000168C1F3810171
:10360000012908D00068C0F3810002280AD1DAF845
:103610000000400206D52868800335D56068002880
:10362000E1D031E06068B0F5803F10D0B0F5A02F58
:10363000286810D020F480302860286820F480208A
:1036400028606068A0B1FFF72DF806460CE02868F6
:1036500040F48030F4E740F480202860F7E7FFF77B
:1036600021F8801B642871D828688003F7D50BE007
:10367000FFF718F8064604E0FFF714F8801B6428EB
:10368000F1D828688003F7D42078DFF89C9280076F
:103690004FF0000B3DD5A348001D016811F00C0F41
:1036A00008D00068C0F3810002280AD1DAF80000CF
:1036B000400206D42868800715D5E068012809D1A2
:1036C00011E0E068B8B10120C9F80000FEF7EAFF98
:1036D000064605E022E1FEF7E5FF801B0228C2D87E
:1036E00028688007F7D52868216920F0F80040EAAB
:1036F000C10028600DE0C9F800B0FEF7D3FF064610
:1037000004E0FEF7CFFF801B02281FD8286880073F
:10371000F7D42078000722D5824F8448616970373A
:1037200071B101210160FEF7BDFF064604E0FEF71E
:10373000B9FF801B022809D838688007F7D50EE04A
:10374000C0F800B0FEF7AEFF064605E082E0FEF7E7
:10375000A9FF801B02287DD838688007F7D420781D
:10376000400765D56F484FF000083C300068C00046
:103770000BD46C483C30016841F080510160006816
:103780004FF0010800F080500090694F3868C00584
:103790000FD4386840F480703860FEF783FF064627
:1037A00004E0FEF77FFF801B022853D83868C0056D
:1037B000F7D55C4FA0686C3701280FD00528386812
:1037C00010D020F001003860386820F00400386024
:1037D000A068B0B1FEF766FF06460EE0386840F01C
:1037E0000100F4E740F004003860F7E7FEF75AFF05
:1037F000811B41F28830814263D838688007F5D553
:103800000DE0FEF74FFF064606E0FEF74BFF811B7B
:1038100041F28830814254D838688007F5D4B8F135
:10382000000F05D03F483C30016821F08051016015
:10383000A069B8B33B49091D0968C1F38101022998
:1038400046D00228584606D0C9F86000FEF72AFF85
:10385000044639E035E04F46C9F86000FEF722FF24
:10386000064604E0FEF71EFF801B022829D82868C0
:103870008001F7D4D4E907010843A16A2D4A490819
:1038800002EB0141626A41EA8211084394F82C106C
:1038900040EA0161CAF8001001203866FEF702FF15
:1038A000044605E03CE0FEF7FDFE001B022808D8B8
:1038B00028688001F7D533E0FEF7F4FE001B0228EC
:1038C00002D90320BDE8F88F28688001F4D427E0EE
:1038D0000128F7D0DAF80000E26900F48001914293
:1038E0001CD1226A00F03F01914217D147F6C07106
:1038F000626A0140B1EB821F10D1A26A4FF0FF3320
:1039000000F4403103EB5202B1EB024F06D194F8C0
:103910002C1000F07060B0EB016F01D00120D1E7F6
:103920000020CFE70438024000004742800E4742A3
:10393000007000400000FFFF70B5040009D0606A0D
:10394000002540B125616561A56294F8510040B140
:103950000CE0012070BD6068B0F5827FF4D0E561B5
:10396000F2E784F85050204600F044F8022084F832
:1039700051002068016821F040010160A088218980
:1039800000F4827001F404410843A18901F400614C
:103990000843217C01F002010843217D01F001016F
:1039A0000843218B01F400710843217F01F03801A5
:1039B000084394F8201001F080010843218D01F4A0
:1039C0000051084321680860A069042101EA104001
:1039D00094F8241001F01001084321684860206821
:1039E000C16921F40061C1616565012084F851005D
:1039F000002070BDF0B587B0044614216846FCF77E
:103A0000C6FE1C492068884232D11B480025016847
:103A100041F480410160006800F480400590164840
:103A20001038016841F004010160016801F00401EF
:103A30000591016841F0020101600068022600F072
:103A4000020005900C20CDE900060327052402950D
:103A5000CDE9037469460948FEF72AFD3003CDE934
:103A600000060295CDE9037469460548FEF720FD7E
:103A700007B0F0BD00380040403802400008024066
:103A80000004024010B5401EB0F1807F01D3012038
:103A900010BD4FF0E02460610F21601703F095FF27
:103AA0000020A06107202061002010BD70477047F2
:103AB00070B590F83C20012A32D0012580F83C50A6
:103AC000022280F83D2002685368946823F0700653
:103AD0000B6833435360134B02689A4214D0B2F11F
:103AE000804F11D0104B9A420ED0104B9A420BD0FF
:103AF0000F4B9A4208D00F4B9A4205D00E4B9A4278
:103B000002D00E4B9A4204D1496824F08003194335
:103B1000916080F83D50002180F83C10084670BD4F
:103B2000022070BD00000140000400400008004079
:103B3000000C00400004014000400140001800401B
:103B400010B5040003D094F83D0010B107E0012047
:103B500010BD002084F83C00204600F01FF8022031
:103B600084F83D00211D206801F076FD012084F8D5
:103B7000460084F83E0084F83F0084F8400084F852
:103B8000410084F8420084F8430084F8440084F83B
:103B9000450084F83D00002010BD000008B5006815
:103BA000234988420FD12348016841F00101016097
:103BB0000068002200F00100009011461920FEF775
:103BC000D9FE192024E01B491B4A091F90420ED13F
:103BD000086840F0020008600868002200F0020057
:103BE000009001211D20FEF7C5FE1D2010E0134AA4
:103BF000904211D1086840F0040008600868002273
:103C000000F00400009001211E20FEF7B3FE1E20EC
:103C1000BDE80840FEF7A0BE094A904207D10868F7
:103C200040F008000860086800F00800009008BD37
:103C300000000140443802400004004000080040F9
:103C4000000C004090F83D10012901D00120704780
:103C5000022180F83D100168CA6842F00102CA6082
:103C600000681149884214D0B0F1804F11D00F493B
:103C700088420ED00E4988420BD00E49884208D0A7
:103C80000D49884205D00D49884202D00C4988422E
:103C900004D1816801F00701062903D0016841F0D1
:103CA0000101016000207047000001400004004055
:103CB00000080040000C00400004014000400140AA
:103CC0000018004070B5044690F83C00002501281B
:103CD00017D0012684F83C60022084F83D0020685B
:103CE000826822F0770222F47F42826008685028BE
:103CF00038D00DDC20284FD005DC90B3102811D12E
:103D00004AE0022070BD302846D040280AD13BE06E
:103D100060282FD070280DD0B0F5805F03D0B0F5AB
:103D2000005F12D0012584F83D60002084F83C003B
:103D3000284670BDCB68D1E90121206801F005FD5E
:103D40002068816841F0770109E0CB68D1E9012161
:103D5000206801F0FAFC2068816841F480418160AC
:103D6000E1E719E0CA684968206801F0C3FD502105
:103D7000206806E0CA684968206801F0CCFD60212F
:103D8000206801F0ECFCCEE7CA684968206801F0C1
:103D9000B1FD40212068F4E7226801461046F0E7B3
:103DA00070472DE9F04104460068C66805694FF088
:103DB0000007A90713D5B10711D5F91E016101202C
:103DC0002077206880698007204602D0FFF7E8FF4F
:103DD00004E000F0D3F8204600F066F92777680782
:103DE00016D5700714D521686FF004000861022011
:103DF00020772068806910F4407F204602D0FFF7CA
:103E0000CFFF04E000F0BAF8204600F04DF9277724
:103E1000280715D5300713D521686FF00800086111
:103E2000042020772068C0698007204602D0FFF771
:103E3000B7FF04E000F0A2F8204600F035F927773C
:103E4000E80616D5F00614D521686FF01000086159
:103E5000082020772068C06910F4407F204602D0F7
:103E6000FFF79EFF04E000F089F8204600F01CF9FF
:103E70002777E80708D0F00706D021686FF0010027
:103E80000861204600F08EFA280608D5300606D5CF
:103E900021686FF0800008612046FFF707FE680682
:103EA00008D5700606D521686FF0400008612046ED
:103EB00000F080FAA8060AD5B00608D521686FF090
:103EC000200008612046BDE8F041FFF7F0BDBDE8E5
:103ED000F081000070B586B0044614216846FCF7F6
:103EE00056FC204E216800231F4C402502221F480B
:103EF000B1420ED1216841F0010121602168009595
:103F0000CDE9012301F00101CDE9042103936946C4
:103F100011E0174EB14212D1206840F0020020603B
:103F200020680095CDE9012300F00200CDE90420CE
:103F3000694603930F48FEF7BBFA06B070BD0E4DFD
:103F4000A942FAD1216841F001012160216801F004
:103F50000101059107218DE80E00CDE90332694684
:103F6000E9E7000000040040303802400000024051
:103F70000008004000040240000C0040704770B58B
:103F8000044690F83C0000260D4601280FD0012081
:103F900084F83C006AB1042A1DD0082A2FD00C2ACC
:103FA0003FD00126002084F83C00304670BD02203E
:103FB00070BD206801F0DCFB2068816941F00801D8
:103FC00081612068816921F0040181612068816933
:103FD0002A69114311E0206801F0FAFB2068816929
:103FE00041F4006181612068816921F4806181610F
:103FF000206881692A6941EA02218161D2E720684B
:1040000001F01CFC2068C16941F00801C161206811
:10401000C16921F00401C1612068C1692A691143A5
:1040200011E0206801F03EFC2068C16941F40061A4
:10403000C1612068C16921F48061C1612068C169E2
:104040002A6941EA0221C161ACE710B5040003D03E
:1040500094F83D0010B107E0012010BD002084F865
:104060003C00204600F01EF8022084F83D00211D8F
:10407000206801F0F1FA012084F8460084F83E003F
:1040800084F83F0084F8400084F8410084F842003E
:1040900084F8430084F8440084F8450084F83D0027
:1040A000002010BD7047000010B50F4988421AD19A
:1040B0000E4940F2DC530E4A0868401C08609842E2
:1040C00004DB002008601068401C10600B68126858
:1040D00008A10E48FCF78CF9BDE810404FF4807140
:1040E0000A48FEF75DB810BDB80200202800002085
:1040F0002C000020636972636C653A25642C70752E
:104100006C73653A25640D0A000000006804002005
:1041100010B5044649B104290AD008290BD094F8F7
:10412000410001280AD0012010BD94F83E00F8E7B4
:1041300094F83F00F5E794F84000F2E70220B1B3AD
:10414000042938D0082939D084F841000122206898
:1041500001F0EEFA1B4920681B4A884201D09042C8
:1041600003D1436C43F4004343642068884213D076
:10417000B0F1804F10D0154988420DD014498842C3
:104180000AD01449884207D0904205D0124988428B
:1041900002D01249884204D1816801F00701062942
:1041A00003D0016841F001010160002010BDFFE76C
:1041B00084F83E00CAE784F83F00C7E784F840006F
:1041C000C4E700000000014000040140000400407A
:1041D00000080040000C0040004001400018004072
:1041E00030B50446002549B104290AD008290BD06E
:1041F00094F8410001280AD0012030BD94F83E0017
:10420000F8E794F83F00F5E794F84000F2E7022061
:1042100071B104290FD0082910D084F8410081B170
:10422000042913D0082947D00C294AD0012541E0A0
:1042300084F83E00F3E784F83F00F0E784F840009C
:10424000EDE72068C26842F0020203E02068C2681D
:1042500042F00402C2600122206801F069FA1B49A1
:1042600020681B4A884201D0904203D1436C43F43A
:10427000004343642068884213D0B0F1804F10D0CF
:10428000144988420DD0144988420AD01349884203
:1042900007D0904205D01249884202D01149884285
:1042A00004D1816801F00701062903D0016841F0BB
:1042B00001010160284630BD2068C26842F0080252
:1042C000C8E72068C26842F01002C3E7000001405E
:1042D000000401400004004000080040000C0040C1
:1042E000004001400018004070B50D0004464FF03A
:1042F000000607D0042D0AD0082D3BD00C2D3ED04F
:10430000012635E02068C16821F0020103E0206841
:10431000C16821F00401C16000222946206801F033
:1043200007FA1E4941F2111220689310884202D008
:104330001B49884209D1016A114206D1016A19421A
:1043400003D1416C21F4004141642068016A1142AB
:1043500006D1016A194203D1016821F0010101600F
:1043600001208DB1042D12D0082D13D084F8410006
:10437000304670BD2068C16821F00801CBE7206895
:10438000C16821F01001C6E784F83E00F0E784F828
:104390003F00EDE784F84000EAE70000000001403C
:1043A000000401400249884201D103F0DFBB70479D
:1043B000280200207047704770470000F8B5016878
:1043C00004460868CA684B6910F00F0F4FF00005EB
:1043D00059D003F0010602F49077374365D0C10746
:1043E00005D0D10503D5616C41F00101616441073D
:1043F00005D5D90703D0616C41F0020161648107E2
:1044000005D5D90703D0616C41F00401616401074F
:1044100007D502F02001314303D0616C41F008015F
:104420006164616C00293AD0800604D5900602D5FB
:10443000204601F086FB20684069616CC0F3801063
:10444000090700D460B3204601F054FB206840699E
:10445000400621D52068143050E8001F21F04001AB
:1044600040E80012002AF5D1E06BA8B16E49016561
:10447000E06BFDF7F8FF002811D0E06B016D01B093
:10448000BDE8F040084783060FD593060DD52046BA
:10449000BDE8F84001F055BB2046FFF78DFFF8BDA1
:1044A0002046FFF789FF6564F8BD266B2023012EA7
:1044B0007DD1C6067BD5D60679D5086848680090B8
:1044C00048694FF00206400641D5E16B0868406834
:1044D0000004000CE8D0A28D8242E5D9E085C869CD
:1044E000B0F5807F2DD020680C3050E8001F21F4FB
:1044F000807140E80012002AF5D12068143050E89D
:10450000001F21F0010140E80012002AF5D12068C7
:10451000143050E8001F21F0400140E80012002A4A
:10452000F5D184F84230256320680C3050E8001F34
:1045300021F0100140E80012002AF5D1E06BFDF7F0
:1045400049FF6663A08DE18D401A81B22AE0A08DFB
:10455000E18D401A81B2E08D0028A5D00029A3D0BA
:1045600020680C3050E8002F22F4907240E80027B9
:10457000002FF5D12068143050E8002F22F00102FE
:1045800040E80027002FF5D184F8423025632068E9
:104590000C3050E8002F22F0100240E80023002BDE
:1045A000F5D166632046FFF706FFF8BDFFE7050675
:1045B0002BD5150629D594F841002128F5D1A068FE
:1045C000B0F5805F01D12069B0B1206A411C216241
:1045D000216800784860E08C401E0004000CE084F4
:1045E000E3D12068C16821F08001C1602068C16802
:1045F00041F04001C160D8E7206A0088C0F308009C
:104600004860206A801C2062E5E74006CDD5500650
:10461000CBD5CA68204622F04002CA6084F84130F7
:1046200000F086F9C1E70000E55A000870B5040003
:1046300004D094F84100002510B106E0012070BDBF
:1046400084F84050204600F023F8242084F84100EC
:104650002068C16821F40051C160204601F0D2FAFF
:104660002068016921F4904101612068416921F0CD
:104670002A0141612068C16841F40051C16065644C
:10468000202084F8410084F842006563002070BD5A
:104690002DE9F04387B0044614216846FCF777F80B
:1046A0005A49594A20680026584B103902240325DC
:1046B0000827DFF85C91904230D1186840F48010F0
:1046C0001860186800F480100590086840F0040035
:1046D0000860086800F004000590086840F00800D1
:1046E0000860086800F00800059088148DE8510003
:1046F000CDE9035769464846FDF7DAFE04208DE808
:104700005100CDE9035769464248FDF7D1FE00222A
:1047100001213520FEF72EF9352027E03B4ADFF84E
:10472000F8C0121D4FF00708604524D1106840F012
:1047300010001060106800F010000590086840F04C
:10474000010008600868694600F0010005904FF418
:10475000C0608DE85100CDE903583048FDF7A8FE50
:10476000002201212520FEF705F92520FEF7F4F8A7
:1047700007B0BDE8F083DFF8A8C0604520D1186815
:1047800040F480201860186800F4802005900868C4
:1047900040F0020008600868694600F002000590D9
:1047A0004FF440608DE85100CDE903581D48FDF7F6
:1047B0007FFE002201212720FEF7DCF82720D5E725
:1047C000194B9842D4D1106840F020001060106856
:1047D00000F020000590086840F0040008600868B8
:1047E000694600F004000590C0208DE85100CDE935
:1047F00003574846FDF75CFE002201214720FEF7E3
:10480000B9F84720B2E700000050004040380240AD
:1048100000080240000C024000100140000002406D
:1048200000480040000402400014014090F842306B
:10483000202B01D00220704721B11AB1002303635D
:1048400001F066BA0120704710B50C4A0168914228
:1048500007D1806A007803F04DF801220021084852
:1048600007E00848814208D103F0C6F80649074826
:104870000122BDE81040FFF7D9BF10BD0014014070
:10488000200400200048004016000020D80300202B
:104890002DE9F843044690F841001F4615460E46A0
:1048A000202802D00220BDE8F8838EB185B1002017
:1048B0006064212084F84100FDF7F4FEA584814660
:1048C000E584A0684FF02008B0F5805F02D003E0D7
:1048D0000120E8E7206910B1354600260EE00025EA
:1048E0000CE08021204601F02EFAA0B9BDB115F8E8
:1048F000010B21684860E08C401EE084E08C4B4650
:104900004FF0000200970028EBD14FF04001204605
:1049100001F019FA40B184F841800320C3E736F86A
:10492000020BC0F30800E4E784F841800020BAE7F6
:104930007047FEE7F0B500230A24302537261F46CE
:1049400010E0B4EB107F02D905EB107C01E006EB20
:10495000107C01F813C001EB430C00015B1C8CF8C8
:104960000170DBB29342ECD3F0BDFDF789BE0000CD
:104970000148FFF767B900002802002070B52849F8
:10498000284D4FF48074887801281BD066000228D7
:1049900024D0CA78012A2DD0022A3FD101228021B9
:1049A000214800F0EFFF002220211F4800F0EAFF1D
:1049B0002146284600F04AF8BDE8704000211A4818
:1049C000FFF70EBC00228021174800F0DBFF012218
:1049D0002021154800F0D6FF214616E00022802154
:1049E000114800F0CFFF002220210F4800F0CAFF3D
:1049F0003146DEE7012280210B4800F0C3FF01228F
:104A00002021094800F0BEFF3146284600F01EF87C
:104A1000BDE8704000210448FFF766BC70BD00008F
:104A20001800002000080240B802002010B5FFF76F
:104A3000A5FF03F031F8024800218170C17010BD5C
:104A40001800002089B20022FDF727BEFDF71DBE29
:104A50007FB50024144800940194029411490394F2
:104A6000C0E9001484600461047680F820400F4996
:104A7000C0E90A140125C561C46080F83040456171
:104A8000FDF74EFC08B1FDF7A2FB0320CDE90005C0
:104A9000694602940448FDF79DFB002801D0FDF70C
:104AA00096FB7FBD00200140340100200100000F73
:104AB0002DE9F04387B014216846FBF768FE3A48B9
:104AC0000024016841F004010160016801F0040163
:104AD0000591016841F080010160016801F08001E9
:104AE0000591016841F001010160016801F00101D7
:104AF0000591016841F002010160016801F00201C5
:104B00000591016841F0080101600068274F00F03D
:104B100008004FF4C0750590002229463846FDF77D
:104B2000BCFDDFF88C804FF44476002231464046CD
:104B3000FDF7B3FDDFF87C9000224FF48451484626
:104B4000FDF7ABFD012220214846FDF7A6FD0095AB
:104B50000125CDE90154694638460394FDF7A8FCC8
:104B60000096CDE90154694640460394FDF7A0FC48
:104B700020208DE8310069464046FDF799FC02206F
:104B80008DE8310069464846FDF792FC4FF48550A8
:104B90000090CDE90154694648460394FDF788FC2E
:104BA00007B0BDE8F083000030380240000002404A
:104BB00000080240000402400D4810B50B49016096
:104BC0000C49416000214FF480428160C0E903122A
:104BD00041618161C1610162FDF76AFD002803D076
:104BE000BDE81040FDF7F3BA10BD000000540040CE
:104BF0007C010020A08601000F4810B50D4901601E
:104C00004FF48271416000218160C1604FF40072F5
:104C10000161C0E90512C1610162416281620A213C
:104C2000C162FEF789FE002803D0BDE81040FDF701
:104C3000CEBA10BD00380040D001002010B586B0BB
:104C40000024174800940194029403940494134997
:104C5000059401605321C0E9011444F62061C0E9C4
:104C6000031444618461FEF76BFF08B1FDF7AFFAEE
:104C70004FF48050009069460948FFF723F808B1C7
:104C8000FDF7A5FA049404A905480594FEF710FF62
:104C9000002801D0FDF79BFA06B010BD00000140CE
:104CA0002802002010B58EB00024079408940994BF
:104CB0000A940B941C2168460C94FBF768FD1F486E
:104CC0001D4901604FF40371C0E901146421C0E97A
:104CD000031480218161FEF733FF08B1FDF777FAF5
:104CE0004FF48050079007A91448FEF7EBFF08B176
:104CF000FDF76DFA1148FFF7A8F908B1FDF767FA5B
:104D00000B940BA90D480C94FEF7D2FE08B1FDF7E9
:104D10005EFA6020CDE9000402940022694607484B
:104D20000494FFF72CF908B1FDF751FA0348FFF797
:104D3000D1F80EB010BD0000000400407002002049
:104D400010B58EB000240794089409940A940B942B
:104D50001C2168460C94FBF71AFD1F481D49016091
:104D600041F28141C0E901140A21C0E90314802104
:104D70008161FEF7E5FE08B1FDF729FA4FF4805096
:104D8000079007A91448FEF79DFF08B1FDF71FFA29
:104D90001148FFF75AF908B1FDF719FA0B940BA95E
:104DA0000D480C94FEF784FE08B1FDF710FA602060
:104DB000CDE9000402940022694607480494FFF7F5
:104DC000DEF808B1FDF703FA0348FFF783F80EB0E9
:104DD00010BD000000080040B802002010B58EB0E1
:104DE00000240794089409940A940B941C216846A3
:104DF0000C94FBF7CCFC27482549016040F2473171
:104E0000C0E901144FF4FA61C0E903148021816103
:104E1000FEF796FE08B1FDF7DAF94FF480500790DF
:104E200007A91C48FEF74EFF08B1FDF7D0F9194855
:104E3000FFF70BF908B1FDF7CAF90B940BA9154858
:104E40000C94FEF735FE08B1FDF7C1F96020CDE9FD
:104E500000040294002269460E480494FFF78FF87C
:104E600008B1FDF7B4F9042269460A48FFF787F84C
:104E700008B1FDF7ACF9082269460648FFF77FF84C
:104E800008B1FDF7A4F90348FFF724F80EB010BDF0
:104E9000000C0040000300200C4810B50A490160D6
:104EA0004FF4E1314160002181600C22C160C0E912
:104EB00004128161C161FFF7B9FB002803D0BDE88E
:104EC0001040FDF784B910BD005000404803002099
:104ED0000C4810B50A4901604FF4E13141600021EE
:104EE00081600C22C160C0E904128161C161FFF7D9
:104EF0009DFB002803D0BDE81040FDF768B910BD48
:104F000000100140900300200C4810B50A490160D0
:104F10004FF4E1314160002181600C22C160C0E9A1
:104F200004128161C161FFF781FB002803D0BDE855
:104F30001040FDF74CB910BD00480040D8030020D8
:104F40000C4810B50A4901604FF4E131416000217D
:104F500081600C22C160C0E904128161C161FFF768
:104F600065FB002803D0BDE81040FDF730B910BD47
:104F7000001401402004002010B500220F49104801
:104F800001F052FB08B1FDF722F90E490C4801F07F
:104F900066FD08B1FDF71BF90B49094801F0E6F879
:104FA00008B1FDF714F9064801F0DCFD002803D034
:104FB000BDE81040FDF70BB910BD00003400002023
:104FC000440A0020F000002084000020FEE7FEE7F5
:104FD0000148FDF74DBE0000402100202DE9F041C1
:104FE000066805460C46306C06EB4411D1F8083BC8
:104FF00095F806C04FF400474FF0200E05F29C4292
:10500000BCF1010F08D0DFF898C0604538D1180412
:1050100031D5C1F8087B3FE0224E5FEA037C04D51E
:10502000B04239D91804F4D436E05FEA836C02D573
:10503000C1F808EB30E013F0280F2DD1B04201D9B0
:105040001804E6D404EBC40005EB8000D1F8101B73
:10505000D0F87432C1F31201591AC0F8681200F581
:105060001570ACB903691BB1C2681144C1600FE08F
:10507000012128680AE098060AD5C1F808EB07E084
:1050800034B9D5F8640218B90021304602F0E0F8CE
:10509000E1B22846FDF7D4FC0020BDE8F081000015
:1050A0000A31544F0A30544F2DE9F84F0E4601EBA8
:1050B000C60100EB81048146D0F80080D4E90910D4
:1050C0001434884202D90120BDE8F88F081AA1687B
:1050D000814200D20846C01C870808EB461A15E03A
:1050E000451AA068A84200D20546E81C870899F82E
:1050F00006000090ABB2F2B24046E16802F0E6FB77
:10510000E0682844E060606928446061DAF81809C2
:1051100080B2B84205D3D4E90401814201D200280B
:10512000DED1D4E90401884208D806F00F0101203D
:105130008840D8F834188143C8F834180020C3E7F1
:105140007047000010B504463BA0FBF745F92178F5
:105150003DA0FBF741F961783EA0FBF73DF961887E
:105160003FA0FBF739F92078012808D002282BD07E
:10517000032847D0BDE810403EA0FBF72DB941A061
:10518000FBF72AF9A078C00709D0606802F0D2FEC8
:1051900041EC100B3FA053EC102BFBF71DF9A0784E
:1051A000800708D5A06802F0C5FE41EC100B40A0B6
:1051B00053EC102B23E0A07840073CD5217BBDE8C1
:1051C000104040A0FBF708B943A0FBF705F9A07811
:1051D000000709D5606802F0ADFE41EC100B43A05A
:1051E00053EC102BFBF7F8F8A078C006E3D5A068C5
:1051F00002F0A0FE41EC100B41A053EC102BFBF78A
:10520000EBF8D8E743A0FBF7E7F8606802F092FEFE
:1052100041EC100B42A053EC102BFBF7DDF8A0681B
:1052200002F088FE41EC100BBDE8104053EC102B4F
:105230003FA0FBF7D1B810BD436F6E74726F6C2046
:10524000446174613A0A00002020547970653A2064
:1052500025750A00202049443A2025750A000000DF
:1052600020204F7074696F6E3A20307825303458A2
:105270000A0000002020556E6B6E6F776E20547907
:1052800070650A002020536572766F204461746156
:105290003A0A00002020202050574D2046726571A8
:1052A00075656E63793A20252E32660A000000008B
:1052B00020202020416E676C653A20252E32660A38
:1052C0000000000020202020446972656374696F2B
:1052D0006E3A2025750A00002020537465707065B1
:1052E0007220446174613A0A0000000020202020EE
:1052F00053706565643A20252E32660A000000006E
:1053000020202020436972636C653A20252E326686
:105310000A0000002020585920446174613A0A00B4
:1053200020202020583A20252E32660A0000000056
:1053300020202020593A20252E32660A0000000045
:1053400070B5044691F8010101287CD1002081F854
:1053500001010878F2EE040A9FED751A01280BD0BE
:1053600002285DD003286FD072A0FBF735F82046E5
:10537000BDE87040FFF7E6BE0120207048786070FD
:105380008A7803206280D3071CD0C87800EE100A08
:10539000F8EE401A9FED6E2A81EE820A10EE100A96
:1053A00084ED010AB0F1785F02DDB4EE000A06E098
:1053B00010EE100A674B984203DA9FED670A84EDFE
:1053C000010A0420930723D50B181D889B786DBA1A
:1053D00000EE103AB8EE400AC0EE201A00EE105A65
:1053E0005E4DB8EE400A31EE800A10EE103A84EDC0
:1053F000020AAB4204DD9FED5A0A84ED020A06E080
:10540000B5EEC00AF1EE10FA01D284ED021AC01C0A
:105410005207ACD5085C207300B101202073A6E7C9
:1054200002202070487860708A7803206280130719
:105430001DD5B1F8030040BA00EE100AB8EE400ADC
:1054400084ED010A01E071E03FE010EE100A454BE7
:10545000984202DD9FED440A06E010EE100A434B2D
:10546000984203DA9FED420A84ED010A05205307B2
:1054700005D50B5C237303B101232373401CD206B3
:10548000CDD508440188807849BA00EE100AB8EEFC
:10549000400AC0EE201A00EE101A3649B8EE400A53
:1054A00031EE800A10EE100A84ED020A884204DD13
:1054B0009FED310A84ED020A59E7B5EEC00AF1EE1C
:1054C00010FAACD284ED021A51E70320207031F8B3
:1054D000010FDFED2B1A40BA00EE100AB8EE400AB9
:1054E00084ED010A4888254940BA00EE900A10EE82
:1054F000100AF8EE600A8842C4ED020A02DDC4ED2B
:10550000011A06E0B5EEC00AF1EE10FA01D284ED00
:10551000011A10EE900A884202DDC4ED021A26E755
:10552000F5EEC00AF1EE10FACCD320E770BD000012
:10553000000000004572726F723A20556E6B6E6FFC
:10554000776E206461746120747970652E0A0000A2
:1055500000007A44CDCCCC3CCDCCCC3C00003443D4
:10556000000034430010A4450010A4450000504240
:10557000000050420000FC420000FC4200007F435B
:1055800000007F4370470178407841EA002070476F
:10559000FDF788B910B592B030216846FBF7F7F8EF
:1055A00014210CA8FBF7F3F81C48016841F0805166
:1055B0000160006800F0805011901948016841F4C2
:1055C000804101600068022400F4804011900120B5
:1055D0000090000401908001CDE90640042008906D
:1055E000A820CDE9090407200B906846FDF7F8FFD5
:1055F00008B172B6FEE70F20CDE90C0480200E90B2
:1056000040010F90109002210CA8FDF7F9FE002830
:1056100001D072B6FEE712B010BD00004038024063
:10562000007000400248016841F470010160704759
:1056300088ED00E00148FEF7B4BB0000280200201E
:105640000148FEF7AEBB0000700200200148FEF7E3
:10565000A8BB0000B8020020F0B50268294D2A4E10
:105660002A4FDFF8ACC02B4B4FF0804EA84209D038
:10567000704507D0B04205D0B84203D0604501D094
:10568000984203D122F070044A682243A8421BD0FA
:10569000704519D0B04217D0B84215D0604513D02C
:1056A000984211D01C4CA0420ED01C4CA0420BD0F2
:1056B0001B4CA04208D01B4CA04205D01A4CA04263
:1056C00002D01A4CA04203D122F44074CA6822438B
:1056D0004C6922F08002224302608A68C2620A6832
:1056E0008262A84201D0984201D109690163012177
:1056F00041610169C90703D0016921F0010101611C
:10570000F0BD00000000014000040040000800401F
:10571000000C0040000401400040014000440140F2
:105720000048014000180040001C004000200040DC
:1057300010B501F01F010123046A8B409C430462F1
:10574000036A8A401343036210BD10B5846842EABD
:10575000032224F47F440A432243826010BD8268FE
:1057600022F070020A4342F0070181607047000096
:10577000F0B5026A036A23F0010303624368846997
:10578000114E24F073050C68104F2C4322F00205D3
:105790008A682A43B04201D0B84205D122F00805F8
:1057A000CA682A4322F00402B04201D0B84205D1AF
:1057B0004D6923F440731D438B692B43436084611F
:1057C000496841630262F0BD0000014000040140ED
:1057D000F0B5026A036A23F0100303624368846928
:1057E0000D6824F4E64444EA05248D6822F0200282
:1057F00042EA05120F4D104EA84201D0B04206D128
:10580000CF6822F0800242EA071222F04002A8424A
:1058100001D0B04207D14D6923F4406343EA8503C8
:105820008D6943EA8503436084614968816302624C
:10583000F0BD00000000014000040140F0B5026A24
:10584000036A23F4807303624368C46922F400721C
:1058500024F073050C68124E2C438D6842EA052231
:105860000E4DA84201D0B04206D1CF6822F40062AA
:1058700042EA072222F48062A84201D0B04207D156
:105880004D6923F4405343EA05138D6943EA051338
:105890004360C4614968C1630262F0BD0000014019
:1058A0000004014030B5036A026A22F480520262A9
:1058B0004268C4690D6824F4E64444EA05248D680E
:1058C00023F4005343EA0533084DA84202D0084DA3
:1058D000A84204D14D6922F4804242EA8512426016
:1058E000C46149680164036230BD000000000140EA
:1058F0000004014010B5046A036A23F00103036247
:10590000836923F0F00343EA021324F00A020A43F6
:105910008361026210BD10B5036A046A24F01004AA
:105920000462846923F0A00324F4704444EA023240
:1059300043EA01118261016210BD000010B500222E
:1059400080210E4800F01EF8002220210B4800F0B4
:1059500019F800210948FEF743FC002210210848ED
:1059600000F010F800228021054800F00BF8BDE897
:10597000104000210248FEF733BC0000B8020020AE
:10598000700200201B4B10B5984214D1102908D08A
:1059900080292DD1184C4FF000013AB1FEF7A4FC3C
:1059A0001EE0164802B10122102114E0FEF718FC97
:1059B00018E080210EE0124B984219D1114C802939
:1059C0000DD0202914D14FF000016AB1FEF78CFCF4
:1059D000012220212046BDE81040FCF75EBE0AB13E
:1059E0000122E6E70022E4E7FEF7FAFB0022F0E7F7
:1059F00010BD0000700200200000024000080240BC
:105A0000B80200200004024010B5144C00222021EE
:105A10002046FCF742FE002280212046FCF73DFE96
:105A2000002280210E48FCF738FE002210210D488C
:105A3000FCF733FE00210C48FEF756FC0A480068CC
:105A4000C16A4908416300210848FEF74DFC074838
:105A50000068C16A4908416310BD000000040240AB
:105A60000000024000080240B8020020700200203E
:105A700030B4DFED150A026860EE200AD16A4FF6F5
:105A8000FE74491E00EE101AB8EE400A20EE800A9D
:105A9000DFED0E0A80EE801ABCEEC10A10EE101A7D
:105AA0004B1EA34202D2916230BC704708494FF0AE
:105AB0000102884202D12021054801E005488021E9
:105AC00030BCFFF75FBF00000000C844A037A04C07
:105AD000B8020020700200200148FEF76FBC0000F1
