:020000040800F2
:100000006029002039020008EB35000803300008A1
:10001000E9350008D1070008CF5A000800000000A9
:100020000000000000000000000000005F37000832
:1000300049080008000000005D3700086B37000821
:10004000530200085302000853020008530200083C
:10005000530200085302000853020008530200082C
:10006000530200085302000853020008530200081C
:10007000530200085302000853020008530200080C
:1000800053020008530200085302000853020008FC
:1000900053020008530200085302000853020008EC
:1000A00053020008113800085302000853020008E8
:1000B000530200081D3800082938000853020008C0
:1000C00053020008530200085302000853020008BC
:1000D00053020008953F000853020008A13F0008A2
:1000E000530200085302000853020008530200089C
:1000F000530200085302000853020008530200088C
:10010000530200085302000853020008530200087B
:1001100053020008B53C00085302000853020008CF
:10012000530200085302000853020008530200085B
:100130005302000800000000000000005302000805
:10014000530200085302000853020008ED3500086E
:10015000530200085302000853020008AD3F000894
:10016000530200085302000853020008530200081B
:1001700053020008530200080000000000000000C5
:10018000530200085302000800F002F800F044F89F
:100190000AA090E8000C82448344AAF10107DA45E2
:1001A00001D100F039F8AFF2090EBAE80F0013F0F0
:1001B000010F18BFFB1A43F001031847B05D0000A0
:1001C000D05D0000103A24BF78C878C1FAD8520731
:1001D00024BF30C830C144BF04680C6070470000C1
:1001E0000023002400250026103A28BF78C1FBD840
:1001F000520728BF30C148BF0B607047642900F028
:100200002581632900F00982002070471FB505F0A1
:100210009BFE1FBD10B510BD00F00BFA1146FFF795
:10022000F5FF05F045FD00F029FA03B4FFF7F2FFF2
:1002300003BC00F031FA0000094880470948004734
:10024000FEE7FEE7FEE7FEE7FEE7FEE7FEE7FEE786
:10025000FEE7FEE704480549054A064B70470000E3
:10026000013800088901000860230020602900206F
:10027000602500206025002053EA020C00F0698010
:100280002DE9F04B4FF00006002B1FBFB3FA83F5AA
:1002900003FA05F424FA05F65E4012BF1643B2FADB
:1002A00082F502FA05F4C5F120051EBF22FA05FC0D
:1002B00044EA0C04203556EA044C4FEA144418BFB3
:1002C000641C4FF000084FF00009904271EB030CE2
:1002D00039D3002919BFB1FA81F701FA07F6B0FA4C
:1002E00080F700FA07F6C7F120071EBF20FA07FCC7
:1002F00046EA0C062037B6FBF4FCA7EB0507103FD7
:1003000007F01F0BCBF120060CFA0BFB2CFA06F6BC
:1003100044BFB3460026202FA4BF5E464FF0000B1B
:100320005BEA060C08BF4FF0010B19EB0B09ABFBA6
:10033000027C48EB0608C01B06FB02CC0BFB03CC7F
:1003400071EB0C01C1E70B46024641464846BDE849
:10035000F08B13B54FF000004FF00001AFF30080B9
:10036000BDE81C40704700000FB41CB5074B06AA3F
:100370007B4469460090059800F02DF900206946FD
:1003800000F03CF91CBC5DF814FB00008902000081
:100390002DE9F0410E460446002020622046E16827
:1003A000884730B3252805D0D4E901219047206A39
:1003B000401CF2E7E168204600278847050018D076
:1003C000A5F14100192802D820354FF400673246C4
:1003D000294620462760FFF711FF40B1012804D0CD
:1003E000F61D26F007060836D8E7361DD6E728465C
:1003F000DAE7206ABDE8F08170B50C460546012AAF
:1004000005D02878800600D5EA69002302E00123A0
:1004100005E05B1C934202D2E05C0028F9D1A86998
:10042000E618C01AA861286A184428622846AFF363
:10043000008004E0D5E9012114F8010B9047B44293
:10044000F8D32846AFF3008070BD00002DE9F041DD
:100450000646002410687529314616A510D0AFF362
:100460000080002802DA404213A507E031688A07BD
:1004700001D512A502E0490704D511A5012401E028
:10048000AFF3008000210A2206F1240709E0B0FB47
:10049000F2FCB0FBF2F302FB1C003030785418463B
:1004A000491C0028F3D123462A463046BDE8F041D6
:1004B00000F032B8000000002D0000002B0000000A
:1004C000200000004FF0000200B513469446964607
:1004D000203922BFA0E80C50A0E80C50B1F1200157
:1004E000BFF4F7AF090728BFA0E80C5048BF0CC005
:1004F0005DF804EB890028BF40F8042B08BF704763
:1005000048BF20F8022B11F0804F18BF00F8012BD4
:1005100070477047704770472DE9F0470D46994680
:100520009246044600F124080168880604D5E06973
:1005300021F01001216000E00120A84201DD471BED
:1005400000E00027A1697A1902EB0900081AA061EE
:100550002078C00602D42046AFF30080002608E0D1
:10056000D4E901211AF806009047206A401C761C45
:1005700020624E45F4DB2078C0060AD52046AFF352
:10058000008006E0D4E9012130209047206A401C19
:100590002062381EA7F10107F4DC07E0D4E901214D
:1005A00018F805009047206A401C2062281EA5F11B
:1005B0000105F3DC2046AFF300802078000602D569
:1005C0000220BDE8F0870120FBE7000001694A1C1A
:1005D00002610878704700B58FB0CDE90131002184
:1005E000059105497944CDE9031011466846FFF7A6
:1005F000CFFE0FB000BD0000E5FFFFFF0A6802F864
:10060000010B0A60704710B5436913B1AFF3008066
:1006100001E0FFF7F1FE012010BD127800F1240186
:100620000A7000224A700122EDE711684FF0FF3294
:10063000E9E7754600F02CF8AE46050069465346DA
:1006400020F00700854618B020B5FFF703FEBDE88F
:1006500020404FF000064FF000074FF000084FF029
:10066000000B21F00701AC46ACE8C009ACE8C009BA
:10067000ACE8C009ACE8C0098D46704710B5044627
:10068000AFF300802046BDE81040FFF7CEBD00006C
:10069000004870470023002001491820ABBEFEE748
:1006A0002600020070470000464910B54A6822F44F
:1006B00040324A604A6843681A434A6001684A689F
:1006C00022F480724A6001684A68036942EA0322A0
:1006D0004A6001684A6822F040724A6001684A68CC
:1006E00083681A434A6001688A6822F400628A605B
:1006F00001688A68C3681A438A60816A6FF0706211
:10070000D14201688A6822F070628A6001688A6852
:100710000CD0836A1A438A6001688A6822F04052CA
:100720008A6001688A68C36A1A4301E022F0405275
:100730008A6001688A6822F002028A6001688A6819
:10074000037E42EA43028A6090F820100029016883
:100750004A680FD042F400624A6001684A6822F495
:1007600060424A6001684A68174C436A04EB4333AD
:100770001A4301E022F400624A600168CA6A22F466
:100780007002CA620168CA6A838B104C04EB03537F
:100790001A43CA6201688A6822F400728A6001689A
:1007A0008A6890F8303042EA43228A6001688A6899
:1007B00022F480628A6001688A68406942EA802087
:1007C000886010BD0023014000E0FFFF0000F0FF43
:1007D000FEE70020704700207047000010B500229F
:1007E0000449054803F0C8FD0449034803F0B7FD78
:1007F000002010BDFC13002020070020FC0B00206F
:1008000010B50146034803F0AAFD024803F080FD3D
:10081000002010BD20070020002070470A4609492B
:1008200010B5D1F8BC12D1F8141209B1012010BDD5
:100830000146044803F0A0FDBDE81040014803F064
:1008400015BE000020070020704772B6FEE70000CA
:1008500078B50024009490F83C20012A19D0012298
:1008600080F83C200A6807250368092A13D9DE6846
:100870000A3A02EB42029540AE43DE600A788B688A
:100880000A3A02EB420293400268D5682B43D360D8
:1008900010E0022078BD1E6902EB42029540AE4393
:1008A0001E610A788B6802EB420293400268156968
:1008B0002B4313614A681F25072A13D203685E6B16
:1008C000521E02EB82029540AE435E630A8893B2E9
:1008D0000A79521E02EB820293400268556B2B4349
:1008E000536327E003680D2A12D21E6BD21F02EB5E
:1008F00082029540AE431E630A8893B20A79D21FE2
:1009000002EB820293400268156B2B43136311E0E4
:10091000DE6A0D3A02EB82029540AE43DE620A883F
:1009200093B20A790D3A02EB820293400268D56ACB
:100930002B43D362164B0568144A9D4206D10D68BD
:10094000122D03D1556845F48005556005689D4218
:1009500018D10B68102B01D0112B13D1536843F41D
:1009600000035360096810290CD10A490A4A096832
:10097000B1FBF2F101EB8101490000E0491E009159
:100980000029FBD180F83C40002078BD00230140C5
:10099000002001400C00002040420F0070B5040010
:1009A0004FF0000603D0206C002510B107E00120B5
:1009B00070BD204600F01CF8656484F83C50206C43
:1009C000C00610D4206C20F4885040F0020020644F
:1009D0002046FFF769FE6564206C20F0020040F0BD
:1009E0000100206400E0012684F83C50304670BDD0
:1009F00010B586B0044614216846FFF763FD11491F
:100A0000206888421CD110480021026842F480729C
:100A10000260006800F4807005900B48143802688A
:100A200042F001020260006800F0010005903820E9
:100A300000900320CDE901016946044800F076F8F2
:100A400006B010BD002001404438024000000240C2
:100A50002DE9F0410446876D00F062F9054694F8EF
:100A600035000026022806D08020606584F83460B6
:100A70000120BDE8F0812068016821F016010160C5
:100A80002068416921F080014161206C08B9A06CA7
:100A900020B12068016821F0080101602068016828
:100AA00021F0010101600CE000F03AF9401B05283B
:100AB00007D920206065032084F8350084F834606D
:100AC000D7E720680068C007EED194F85C103F209B
:100AD0008840B860012084F8350084F83460002034
:100AE000C7E790F83510022903D080214165012025
:100AF0007047052180F835100068016821F0010178
:100B0000016000207047000070B5044600F008F94D
:100B10000546601C02D004480078044400F000F947
:100B2000401BA042FAD370BD000000202DE9F84F11
:100B3000DFF89C910022A9F1040B03274FF00F0C62
:100B400009F1040AABF1040E01250B6895402B4016
:100B5000AB426ED10C7904F00304012C01D0022CBD
:100B600015D18668540007FA04F826EA0806D1F879
:100B70000C8008FA04F848EA0608C0F808804468BF
:100B8000AC430D79C5F300159540254345600C79BC
:100B9000E443A40708D0C568540007FA04F6B54337
:100BA0008E68A6402E43C6600C7904F00304022C24
:100BB00011D1D40800EB8406356A5407E40E0CFA10
:100BC00004F825EA0805D1F8108008FA04F848EA84
:100BD0000508C6F820800568540007FA04F6B543F6
:100BE0000E7906F00306A6402E4306604C6814F406
:100BF000403F66D0374C256845F480452560246821
:100C000022F0030504F480440094334C05EB0408FF
:100C1000D8F808589407260F0CFA06F4A5432F4C71
:100C2000A04201D1002424E02D4CA04202D1012495
:100C30001FE046E02B4CA04201D1022419E02A4CCF
:100C4000A04201D1032414E0284CA04201D1042485
:100C50000FE0274CA04201D105240AE0254CA04218
:100C600001D1062405E0244CA04201D1072400E074
:100C70000824B4402C43C8F80848D9F800404D4631
:100C80004E689C43F60200D51C432C60DAF8004005
:100C900055464E689C43B60200D51C432C60DBF8D9
:100CA00000405D464E689C43B60300D51C432C6053
:100CB000DEF8004075464E689C43F60300D51C43A1
:100CC0002C60521C102AFFF43FAFBDE8F88F0000E3
:100CD000083C01404438024000300140000002401E
:100CE0000004024000080240000C024000100240D4
:100CF0000014024000180240001C02400069084035
:100D000000D001207047426921EA02030A4043EA09
:100D10000241816170470AB1816170470904FBE7B4
:100D200001488068704700000000002070B5040092
:100D300025D094F83D00002520B984F83C50204689
:100D400000F0B8F8242084F83D002068016821F004
:100D5000010101602068016841F4004101602068E0
:100D6000016821F40041016000F028FF4D4B6168EB
:100D7000994201D84C4900E04C49884201D20120F7
:100D800070BD4B492268B0FBF1F1566826F03F0672
:100D90000E43566062689A4206D94FF496725143E8
:100DA0004FF47A72B1FBF2F12268491C166A26F000
:100DB0003F06314311626168994210D84900401ED4
:100DC000B0FBF1F2521CC2F30B02042A01D2042040
:100DD00022E0B0FBF1F0401CC0F30B001CE0A26865
:100DE000F2B301EBC10303EB0116431EB3FBF6F3B1
:100DF0005B1C43F480431B0549D092B301EBC10255
:100E000002EB0111401EB0FBF1F0401CC0F30B00DF
:100E100040F4804040F400402168CA694CF6FF73FA
:100E20009A431043C861D4E907100143206802685F
:100E300022F0C00211430160D4E90301014320689C
:100E4000826848F2FF339A4311438160D4E9051068
:100E500001432068C26822F0FF021143C16001E033
:100E60000EE016E02068016841F001010160256490
:100E7000202084F83D00256384F83E50002070BD9A
:100E800001EB4106431EB3FBF6F35B1CB3E7012005
:100E9000C2E701EB4101401EB0FBF1F0401CC0F382
:100EA0000B00B7E7A086010080841E0000093D000A
:100EB00040420F0010B586B0044614216846FFF783
:100EC00001FB14492068884221D11348002102689F
:100ED00042F002020260006800F0020005904FF448
:100EE000407000901220CDE90101032003900420FE
:100EF000049069460948FFF719FE07481030016859
:100F000041F400110160006800F40010059006B083
:100F100010BD000000540040303802400004024080
:100F20000248816802781144816070470000002007
:100F30000B4810B5016841F400710160016841F48B
:100F400080610160016841F480710160032000F05C
:100F50006FF80F2000F006F800F024F8002010BD14
:100F6000003C024070B50D4D04464FF47A7128786C
:100F7000B1FBF0F00A490968B1FBF0F001F0C0F8EC
:100F800048B9102C07D200222146501E00F030F83C
:100F900000206C6070BD012070BD000000000020CA
:100FA0000C0000200A4808B5016841F48041016046
:100FB000006800F4804000900548001F016841F07F
:100FC00080510160006800F08050009008BD000072
:100FD00044380240002809DB00F01F020121914043
:100FE0004009800000F1E020C0F8001170470000C7
:100FF000F0B40E4B1B68C3F30223C3F10704042CA7
:1010000000D904241D1D072D01D2002300E0DB1EA2
:10101000012606FA04F56D1E0D409D409E40761E89
:10102000164045EA0601F0BC04F052BD0CED00E0AC
:10103000064A00F0070110684FF6FF03184040EA27
:101040000120034908431060704700000CED00E0E8
:101050000000FA0570470068416200207047F0B553
:101060000368586A39B19C6A4FF4827500EB1444E6
:1010700000204E1E0AE040EA024098620FE005EBB5
:101080008007DF59401C04EB1744C0B2B042F6D3CE
:1010900044EA02404FF4807202EB81015850002074
:1010A000F0BDD0F8E00403F076BC01EBC10200EB28
:1010B0008202D0F8E004126A03F0C9BB01EBC1025E
:1010C00000EB8202D0F8E004D2F8602203F018BCF2
:1010D000D0F8E00403F061BC0A0601F00F0101EB57
:1010E000C10100EB810101D5143101E001F5157159
:1010F000006804F03BBB70B504460B0601F00F001E
:1011000000EBC00104EB81014FF001024FF000053C
:1011100002D54A75143103E081F8555201F5157175
:10112000087094F89404012808D084F89424206866
:1011300004F03AF884F89454002070BD022070BD89
:1011400070B5044601F00F002279904201D90120C8
:1011500070BD0B0601F00F0101EBC10104EB810131
:101160004FF001024FF0000502D54A75143103E03B
:1011700081F8555201F515718D70087094F894043A
:10118000012808D084F89424206804F07BF984F8BE
:101190009454002070BD022070BD01F00F0101EBDE
:1011A000C10100EB8100D0F8680270472DE9F041E1
:1011B00004460F0601F00F0000EBC00104EB8101B3
:1011C0004FF001064FF0000502D54E75143103E0D3
:1011D00081F8555201F51571C2F30A0208708A6050
:1011E0000B714A7802B14883022B00D14D7194F8FB
:1011F0009404012809D084F89464206803F026FF41
:10120000284684F89454BDE8F0810220FBE710B52D
:1012100001F00F0404EBC40100EB8101C1E9982344
:101220000023C1F8683281F8553281F8544283793D
:1012300001F51571012B00D1CA618279006804F0B3
:1012400079F9002010BD70B504460D4601F00F007D
:101250002179884201D9012070BD29064FF000068E
:101260004FF0010206D500EBC00104EB81014A7585
:10127000143107E005EBC50104EB810181F85562EB
:1012800001F515718A70087094F89404012807D04C
:1012900084F89424206804F021F9280702D007E09C
:1012A000022070BDA17904F29C42206804F0BEF8CF
:1012B00084F89464002070BD10B501F00F0404EBB5
:1012C000C40100EB8101C1E9082300238B620123E3
:1012D0004B7501F8144F8379012B00D1CA618279D3
:1012E000006804F027F9002010BD00002DE9F84F38
:1012F00005680446284604F0D4FA00287DD1206809
:1013000004F0FBFA002878D0D5F80808C0F30D20C7
:10131000C4F8D404206804F0F0FA800704D52068EB
:10132000416901F002014161206804F0E6FAC1065A
:1013300004F29C40009034D52068816921F01001AE
:1013400081612F6A07F00F0000EBC00004EB8006FC
:10135000C7F3434006F51576022802D0062811D0BF
:101360001AE047F6F070074216D0C7F30A12174684
:101370002846F16804F0C5FAF0683844F0607069F6
:10138000384408E008222846009904F0BAFA706947
:10139000C7F30A11084470612068816941F01001A7
:1013A0008161206804F0A9FA00034FF0010B7AD59F
:1013B0000026206804F080FA8046DFF878A46FE009
:1013C0005FEAC87069D0F1B2206804F08EFA07466F
:1013D000C00707D005EB4611C1F808BB31462046CF
:1013E00002F00AF9380722D505EB46110820C1F8AA
:1013F000080B2068D0F8409000E018E200EB46109F
:10140000D0F8082BD14505D9110403D54FF400417C
:10141000C0F8081B204600F0F0FAD14507D9A079A2
:10142000012804D120680121009A03F0FFFFF8068B
:1014300004D505EB46111020C1F8080BB8071DD5DF
:101440006869000605D5D5F8040840F48061C5F840
:10145000041806EBC60004EB800090F8571200F564
:101460001570012905D10021C170F1B2204600F0AC
:10147000E7F905EB46110220C1F8080BB80604D5C0
:1014800005EB46102021C0F8081BB80405D505EB74
:1014900046104FF40051C0F8081B4FEA5808761C5C
:1014A000B8F1000F8CD1206804F027FA40036DD505
:1014B000206804F0FAF98046002664E05FEAC8700C
:1014C0005ED0F1B2206804F0FEF90746C00723D0D1
:1014D00006F00F010BFA01F0D5F834188143C5F876
:1014E000341805EB4610C0F808B9A07901280FD1CF
:1014F00006EBC60004EB8000D0E90721114401622D
:1015000036B9606A20B920680121009A03F08EFF85
:10151000F1B22046FFF7C9FD380704D505EB4611A7
:101520000820C1F80809F80604D505EB461110207B
:10153000C1F80809780604D505EB46104021C0F82B
:101540000819B80716D53146284604F07FF906EB8E
:10155000C60004EB8000C17D1430012905D10021B3
:10156000C170F1B2204600F067F905EB4611022088
:10157000C1F80809380603D53146204602F0A2F822
:101580004FEA5808761CB8F1000F97D1206804F094
:10159000B4F9002811DAD5F8040820F00101C5F8E3
:1015A000041894F8CC0401282BD0204600F00AFA45
:1015B0002068416901F000414161206804F09DF913
:1015C00000050BD5D5F80808C00702D0204600F06A
:1015D0003DFA2068416901F400614161206804F02E
:1015E0008CF9C00467D5D5F8040820F00101C5F8CE
:1015F00004181021206804F029F900214FF67F32E9
:1016000020E0002084F8CC0401462046FFF722FDAC
:10161000CEE705EB4110C0F80829D0F8003923F4D3
:101620000013C0F80039C0F8082BD0F8003B23F4B1
:101630000013C0F8003BD0F8003B43F00063C0F853
:10164000003B491C20798842E3D8D5F81C0840F0BB
:101650000111C5F81C18E07B002828460DD0D0F8F1
:10166000840840F00B01C5F88418D5F8440840F010
:101670000B012846C5F844180DE0D0F8140842F2D2
:101680002B010843C5F81408D5F8100840F00B01E9
:101690002846C5F81018D0F8000820F4FE61C5F8F7
:1016A0000018A1792068009A03F0C0FE2068416903
:1016B00001F480514161206804F01FF9800415D5C0
:1016C000206803F003FD206804F0DEF8E07100F00C
:1016D0006FFA0146E279206804F072F9204600F0C2
:1016E0005BF92068416901F400514161206804F010
:1016F00004F9000707D5204600F068F92068416921
:1017000001F008014161206804F0F7F8000615D5E2
:10171000A86920F08001A96101260CE006EBC60053
:1017200004EB800090F85702012803D1F1B2204663
:10173000FFF7D2FC761C2079B042EFD8206804F085
:10174000DCF8C0021FD501265F4614E005EB461009
:10175000D0F8001906EBC60004EB8000027E012AD7
:1017600008D1002906DAC775F0B240F080012046A2
:10177000FFF7B2FC761C2079B042E7D820684169B7
:1017800001F480114161206804F0B7F8800231D57E
:1017900001205B4626E005EB4011D1F8001B00EB71
:1017A000C00204EB820292F85862012E19D100297E
:1017B00017DA94F8D46401F4803106F00106B142DE
:1017C0000FD182F85732A96941F08002AA61696994
:1017D000090606D4D5F8040840F40070C5F80408DA
:1017E00003E0401C21798142D5D82068416901F489
:1017F00000114161206804F080F8400007D52046C0
:10180000FFF74FFC2068416901F080414161206889
:1018100004F073F840070AD520684568680702D5C8
:101820002046FFF755FC2068416829434160BDE828
:10183000F88F00000A30544FD0F8E00403F0FFB8EE
:10184000D0F8E00403F00FB9F8B5040005D094F81F
:1018500095042668002510B106E00120F8BD84F843
:101860009454204600F056F8032084F89504B6F10D
:10187000A04F00D1A571206803F0D2FD207C8DF827
:10188000000094E80F0003F02FFC0226B0BB0021FB
:10189000206804F055F888BB002101270CE001EB1B
:1018A000C10004EB800047750175C1850576C561EF
:1018B0000562491CC9B2456220798842EFD80021EF
:1018C00011E001EBC10004EB800080F8555280F874
:1018D000541280F85852C0F85C52C0F86052491C4B
:1018E000C9B2C0F8645220798842EAD8207C8DF8C9
:1018F000000094E80F0003F0DBFC10B184F895645D
:10190000ABE7657484F89574206803F0C3FC00208D
:10191000F8BD000010B586B0044614216846FEF7F5
:10192000D1FD2068B0F1A04F2FD1194800210268E5
:1019300042F001020260006800F0010005904FF4DF
:10194000C05000900220CDE90101032003900A203D
:10195000049069460F48FFF7E9F80D48001D01683B
:1019600041F0800101600A481430016841F480416F
:1019700001600068002200F48040059001214320AE
:10198000FFF736FB4320FFF725FB06B010BD000034
:10199000303802400000024070B50446C07901258D
:1019A00070B1022801D0FEF750FF2946D4F8E004B8
:1019B00003F0C7F8D4F8E004BDE8704003F07CB849
:1019C0000025F2E7D0F8E00403F0A4B8D0F8E00472
:1019D00003F0AAB810B5044690F8940401280AD080
:1019E000012084F894046174206803F0D7FF00207C
:1019F00084F8940410BD022010BDD0F8E02400F259
:101A00009C41104603F0A9B810B50446006894F84C
:101A10009414012909D0012184F89414C16849065D
:101A200009D5617B012902D005E0022010BD816B40
:101A300041F480318163206803F0E6FE206803F002
:101A40001BFC002084F8940410BD000010B504466F
:101A5000D0F8E00403F0C3F82068D0F8001E41F08D
:101A60000101C0F8001EE07A002804D00248016895
:101A700041F00601016010BD10ED00E02DE9F047D6
:101A80000D46040065D0DFF81491D9F80000EFB2DC
:101A900000F00700A84207D289F80070D9F80000CA
:101AA00000F00700A84254D120683D4E810712D5AE
:101AB000400703D5306840F4E050306020780007DC
:101AC00003D5306840F4604030603068A16820F091
:101AD000F000084330602078C0072DD0304960689E
:101AE0000839012812D0022813D0032811D0096820
:101AF000890700292DDA316821F0030101433160A3
:101B0000FFF70EF9804641F2883A0EE00968890332
:101B1000EFE709688901ECE7FFF702F9A0EB08019C
:101B2000514502D90320BDE8F0873068616800F0B4
:101B30000C00B0EB810FEFD1D9F80010484601F04E
:101B40000701A94207D90770006800F00700A84202
:101B500001D00120E7E72078400705D53068E1682B
:101B600020F4E050084330602078000706D5306844
:101B7000216920F4604040EAC100306000F03EF886
:101B80003168084AC1F30311515CC8400649086036
:101B900006480068FFF7E6F90020C4E7003C024071
:101BA00008380240525F00080C00002004000020AA
:101BB00001480068704700000C00002004480549F7
:101BC00000680968044AC1F38221515CC84070472B
:101BD0000C00002008380240625F000804480549F4
:101BE00000680968044AC1F34231515CC84070473B
:101BF0000C00002008380240625F0008154810B54C
:101C0000006810F00C01144813D0431004290FD0C1
:101C100008290ED10F4C241F216801F03F022168D2
:101C2000490207D52068C0F38810A0FB030106E035
:101C3000184610BD2168C1F38811A1FB00010023E3
:101C4000FEF71AFB2168C1F30141491C4900B0FBB2
:101C5000F1F010BD083802400024F4002DE9F84FDF
:101C6000040075D02078DFF838A3C007AAF1040576
:101C700048D00AF104000168C1F38101012908D0AC
:101C80000068C0F3810002280AD1DAF8000040029F
:101C900006D52868800335D560680028E1D031E09A
:101CA0006068B0F5803F10D0B0F5A02F286810D044
:101CB00020F480302860286820F480202860606844
:101CC000A0B1FFF72DF806460CE0286840F48030FC
:101CD000F4E740F480202860F7E7FFF721F8801B45
:101CE000642871D828688003F7D50BE0FFF718F84F
:101CF000064604E0FFF714F8801B6428F1D8286832
:101D00008003F7D42078DFF89C9280074FF0000B17
:101D10003DD5A348001D016811F00C0F08D00068E4
:101D2000C0F3810002280AD1DAF80000400206D48C
:101D30002868800715D5E068012809D111E0E0681E
:101D4000B8B10120C9F80000FEF7EAFF064605E039
:101D500022E1FEF7E5FF801B0228C2D82868800731
:101D6000F7D52868216920F0F80040EAC100286012
:101D70000DE0C9F800B0FEF7D3FF064604E0FEF719
:101D8000CFFF801B02281FD828688007F7D420784F
:101D9000000722D5824F84486169703771B10121F3
:101DA0000160FEF7BDFF064604E0FEF7B9FF801BA9
:101DB000022809D838688007F7D50EE0C0F800B0CF
:101DC000FEF7AEFF064605E082E0FEF7A9FF801BA6
:101DD00002287DD838688007F7D42078400765D579
:101DE0006F484FF000083C300068C0000BD46C48CE
:101DF0003C30016841F08051016000684FF00108FB
:101E000000F080500090694F3868C0050FD43868E2
:101E100040F480703860FEF783FF064604E0FEF76A
:101E20007FFF801B022853D83868C005F7D55C4F68
:101E3000A0686C3701280FD00528386810D020F032
:101E400001003860386820F004003860A068B0B144
:101E5000FEF766FF06460EE0386840F00100F4E742
:101E600040F004003860F7E7FEF75AFF811B41F2AB
:101E70008830814263D838688007F5D50DE0FEF7D9
:101E80004FFF064606E0FEF74BFF811B41F288300C
:101E9000814254D838688007F5D4B8F1000F05D0D6
:101EA0003F483C30016821F080510160A069B8B31F
:101EB0003B49091D0968C1F38101022946D0022866
:101EC000584606D0C9F86000FEF72AFF044639E0FC
:101ED00035E04F46C9F86000FEF722FF064604E0F1
:101EE000FEF71EFF801B022829D828688001F7D43E
:101EF000D4E907010843A16A2D4A490802EB0141D0
:101F0000626A41EA8211084394F82C1040EA0161A8
:101F1000CAF8001001203866FEF702FF044605E00B
:101F20003CE0FEF7FDFE001B022808D8286880016F
:101F3000F7D533E0FEF7F4FE001B022802D9032098
:101F4000BDE8F88F28688001F4D427E00128F7D095
:101F5000DAF80000E26900F4800191421CD1226AA3
:101F600000F03F01914217D147F6C071626A01400B
:101F7000B1EB821F10D1A26A4FF0FF3300F4403161
:101F800003EB5202B1EB024F06D194F82C1000F093
:101F90007060B0EB016F01D00120D1E70020CFE7E6
:101FA0000438024000004742800E47420070004063
:101FB0000000FFFF70B5040009D0606A002540B141
:101FC00025616561A56294F8510040B10CE00120E3
:101FD00070BD6068B0F5827FF4D0E561F2E784F807
:101FE0005050204600F044F8022084F85100206848
:101FF000016821F040010160A088218900F482700D
:1020000001F404410843A18901F400610843217CE3
:1020100001F002010843217D01F001010843218BF9
:1020200001F400710843217F01F03801084394F85E
:10203000201001F080010843218D01F40051084374
:1020400021680860A069042101EA104094F8241076
:1020500001F010010843216848602068C16921F43B
:102060000061C1616565012084F85100002070BDE8
:10207000F0B587B0044614216846FEF723FA1C49E0
:102080002068884232D11B480025016841F4804114
:102090000160006800F4804005901648103801681F
:1020A00041F004010160016801F00401059101683B
:1020B00041F0020101600068022600F00200059074
:1020C0000C20CDE90006032705240295CDE9037411
:1020D00069460948FEF72AFD3003CDE9000602955E
:1020E000CDE9037469460548FEF720FD07B0F0BD51
:1020F000003800404038024000080240000402401E
:1021000010B5401EB0F1807F01D3012010BD4FF00B
:10211000E02460610F21601703F0DAFC0020A06169
:1021200007202061002010BD7047704770B590F8FF
:102130003C20012A32D0012580F83C50022280F850
:102140003D2002685368946823F070060B6833439F
:102150005360134B02689A4214D0B2F1804F11D0F1
:10216000104B9A420ED0104B9A420BD00F4B9A4212
:1021700008D00F4B9A4205D00E4B9A4202D00E4B1C
:102180009A4204D1496824F080031943916080F891
:102190003D50002180F83C10084670BD022070BD03
:1021A000000001400004004000080040000C004016
:1021B00000040140004001400018004010B5040038
:1021C00003D094F83D0010B107E0012010BD0020BD
:1021D00084F83C00204600F01FF8022084F83D00FF
:1021E000211D206801F026FB012084F8460084F8B8
:1021F0003E0084F83F0084F8400084F8410084F8F1
:10220000420084F8430084F8440084F8450084F8D0
:102210003D00002010BD000008B500682349884239
:102220000FD12348016841F00101016000680022DC
:1022300000F00100009011461920FEF7D9FE192088
:1022400024E01B491B4A091F90420ED1086840F048
:10225000020008600868002200F0020000900121DE
:102260001D20FEF7C5FE1D2010E0134A904211D13B
:10227000086840F0040008600868002200F00400CC
:10228000009001211E20FEF7B3FE1E20BDE808408D
:10229000FEF7A0BE094A904207D1086840F0080046
:1022A0000860086800F00800009008BD00000140C8
:1022B000443802400004004000080040000C004088
:1022C00090F83D10012901D001207047022180F8CB
:1022D0003D100168CA6842F00102CA6000681149F5
:1022E000884214D0B0F1804F11D00F4988420ED0EF
:1022F0000E4988420BD00E49884208D00D498842C9
:1023000005D00D49884202D00C49884204D1816829
:1023100001F00701062903D0016841F001010160C5
:102320000020704700000140000400400008004009
:10233000000C004000040140004001400018004033
:1023400070B5044690F83C000025012817D00126FE
:1023500084F83C60022084F83D002068826822F006
:10236000770222F47F4282600868502838D00DDC62
:1023700020284FD005DC90B3102811D14AE002206C
:1023800070BD302846D040280AD13BE060282FD0CD
:1023900070280DD0B0F5805F03D0B0F5005F12D08B
:1023A000012584F83D60002084F83C00284670BD7B
:1023B000CB68D1E90121206801F0B5FA2068816875
:1023C00041F0770109E0CB68D1E90121206801F0F3
:1023D000AAFA2068816841F480418160E1E719E050
:1023E000CA684968206801F073FB5021206806E044
:1023F000CA684968206801F07CFB6021206801F010
:102400009CFACEE7CA684968206801F061FB402168
:102410002068F4E7226801461046F0E770472DE98E
:10242000F04104460068C66805694FF00007A90737
:1024300013D5B10711D5F91E01610120207720685D
:1024400080698007204602D0FFF7E8FF04E000F033
:10245000D3F8204600F066F92777680716D570078D
:1024600014D521686FF004000861022020772068ED
:10247000806910F4407F204602D0FFF7CFFF04E0D0
:1024800000F0BAF8204600F04DF92777280715D557
:10249000300713D521686FF0080008610420207709
:1024A0002068C0698007204602D0FFF7B7FF04E02C
:1024B00000F0A2F8204600F035F92777E80616D597
:1024C000F00614D521686FF010000861082020770D
:1024D0002068C06910F4407F204602D0FFF79EFFBD
:1024E00004E000F089F8204600F01CF92777E8079F
:1024F00008D0F00706D021686FF00100086120467F
:1025000000F08EFA280608D5300606D521686FF04F
:10251000800008612046FFF707FE680608D57006B0
:1025200006D521686FF040000861204600F080FA6F
:10253000A8060AD5B00608D521686FF0200008610A
:102540002046BDE8F041FFF7F0BDBDE8F081000096
:1025500070B586B0044614216846FDF7B3FF204EDF
:10256000216800231F4C402502221F48B1420ED192
:10257000216841F00101216021680095CDE9012326
:1025800001F00101CDE904210393694611E0174EE2
:10259000B14212D1206840F002002060206800950E
:1025A000CDE9012300F00200CDE904206946039340
:1025B0000F48FEF7BBFA06B070BD0E4DA942FAD126
:1025C000216841F001012160216801F001010591BC
:1025D00007218DE80E00CDE903326946E9E70000E6
:1025E0000004004030380240000002400008004073
:1025F00000040240000C0040704770B5044690F89B
:102600003C0000260D4601280FD0012084F83C0034
:102610006AB1042A1DD0082A2FD00C2A3FD00126E7
:10262000002084F83C00304670BD022070BD206858
:1026300001F08CF92068816941F00801816120680E
:10264000816921F004018161206881692A6911434F
:1026500011E0206801F0AAF92068816941F4006165
:1026600081612068816921F48061816120688169CC
:102670002A6941EA02218161D2E7206801F0CCF9A0
:102680002068C16941F00801C1612068C16921F079
:102690000401C1612068C1692A69114311E0206801
:1026A00001F0EEF92068C16941F40061C161206860
:1026B000C16921F48061C1612068C1692A6941EA68
:1026C0000221C161ACE710B5040003D094F83D00CD
:1026D00010B107E0012010BD002084F83C00204626
:1026E00000F01EF8022084F83D00211D206801F052
:1026F000A1F8012084F8460084F83E0084F83F00E9
:1027000084F8400084F8410084F8420084F84300D3
:1027100084F8440084F8450084F83D00002010BD92
:102720007047000010B50F4988421AD10E4940F297
:10273000DC530E4A0868401C0860984204DB002005
:1027400008601068401C10600B68126808A10E48F1
:10275000FDF70AFEBDE810404FF480710A48FEF70D
:102760005DB810BDA8020020280000202C00002029
:10277000636972636C653A25642C70756C73653A95
:1027800025640D0A000000005804002010B504461E
:1027900049B104290AD008290BD094F84100012836
:1027A0000AD0012010BD94F83E00F8E794F83F00ED
:1027B000F5E794F84000F2E70220B1B3042938D0DD
:1027C000082939D084F841000122206801F09EF8E0
:1027D0001B4920681B4A884201D0904203D1436CB8
:1027E00043F4004343642068884213D0B0F1804F23
:1027F00010D0154988420DD0144988420AD0144996
:10280000884207D0904205D01249884202D012492E
:10281000884204D1816801F00701062903D00168CC
:1028200041F001010160002010BDFFE784F83E0087
:10283000CAE784F83F00C7E784F84000C4E7000017
:102840000000014000040140000400400008004076
:10285000000C0040004001400018004030B5044624
:10286000002549B104290AD008290BD094F8410069
:1028700001280AD0012030BD94F83E00F8E794F812
:102880003F00F5E794F84000F2E7022071B1042917
:102890000FD0082910D084F8410081B1042913D049
:1028A000082947D00C294AD0012541E084F83E0090
:1028B000F3E784F83F00F0E784F84000EDE7206894
:1028C000C26842F0020203E02068C26842F00402DB
:1028D000C2600122206801F019F81B4920681B4AD8
:1028E000884201D0904203D1436C43F400434364D7
:1028F0002068884213D0B0F1804F10D0144988422C
:102900000DD0144988420AD01349884207D090421A
:1029100005D01249884202D01149884204D1816809
:1029200001F00701062903D0016841F001010160AF
:10293000284630BD2068C26842F00802C8E7206817
:10294000C26842F01002C3E70000014000040140E9
:102950000004004000080040000C0040004001401E
:102960000018004070B50D0004464FF0000607D077
:10297000042D0AD0082D3BD00C2D3ED0012635E089
:102980002068C16821F0020103E02068C16821F0DD
:102990000401C16000222946206800F0B7FF1E49EB
:1029A00041F2111220689310884202D01B498842DC
:1029B00009D1016A114206D1016A194203D1416C61
:1029C00021F4004141642068016A114206D1016A84
:1029D000194203D1016821F00101016001208DB18C
:1029E000042D12D0082D13D084F84100304670BD5C
:1029F0002068C16821F00801CBE72068C16821F098
:102A00001001C6E784F83E00F0E784F83F00EDE7E8
:102A100084F84000EAE700000000014000040140A3
:102A20000249884201D103F0CDB870471802002056
:102A30007047704770470000F8B5016804460868A1
:102A4000CA684B6910F00F0F4FF0000559D003F022
:102A5000010602F49077374365D0C10705D0D10550
:102A600003D5616C41F001016164410705D5D907C7
:102A700003D0616C41F002016164810705D5D9077B
:102A800003D0616C41F004016164010707D502F0D5
:102A90002001314303D0616C41F008016164616C35
:102AA00000293AD0800604D5900602D5204601F0D0
:102AB00036F920684069616CC0F38010090700D4C2
:102AC00060B3204601F004F920684069400621D532
:102AD0002068143050E8001F21F0400140E8001247
:102AE000002AF5D1E06BA8B16E490165E06BFDF7F6
:102AF000F8FF002811D0E06B016D01B0BDE8F04097
:102B0000084783060FD593060DD52046BDE8F8404B
:102B100001F005B92046FFF78DFFF8BD2046FFF70D
:102B200089FF6564F8BD266B2023012E7DD1C60682
:102B30007BD5D60679D508684868009048694FF07B
:102B40000206400641D5E16B086840680004000CAD
:102B5000E8D0A28D8242E5D9E085C869B0F5807FD2
:102B60002DD020680C3050E8001F21F4807140E81F
:102B70000012002AF5D12068143050E8001F21F01F
:102B8000010140E80012002AF5D12068143050E815
:102B9000001F21F0400140E80012002AF5D184F81E
:102BA0004230256320680C3050E8001F21F01001EE
:102BB00040E80012002AF5D1E06BFDF749FF66639B
:102BC000A08DE18D401A81B22AE0A08DE18D401ADE
:102BD00081B2E08D0028A5D00029A3D020680C3058
:102BE00050E8002F22F4907240E80027002FF5D122
:102BF0002068143050E8002F22F0010240E800273E
:102C0000002FF5D184F84230256320680C3050E85D
:102C1000002F22F0100240E80023002BF5D166635C
:102C20002046FFF706FFF8BDFFE705062BD5150682
:102C300029D594F841002128F5D1A068B0F5805F2E
:102C400001D12069B0B1206A411C2162216800785D
:102C50004860E08C401E0004000CE084E3D1206852
:102C6000C16821F08001C1602068C16841F0400165
:102C7000C160D8E7206A0088C0F308004860206A75
:102C8000801C2062E5E74006CDD55006CBD5CA684A
:102C9000204622F04002CA6084F8413000F0B0F9CA
:102CA000C1E70000C13C000870B5040004D094F8EE
:102CB0004100002510B106E0012070BD84F84050AD
:102CC000204600F023F8242084F841002068C168E1
:102CD00021F40051C160204601F082F820680169AA
:102CE00021F4904101612068416921F02A0141618C
:102CF0002068C16841F40051C1606564202084F8F7
:102D0000410084F842006563002070BD2DE9F04366
:102D100087B0044614216846FDF7D4FB5A49594A46
:102D200020680026584B1039022403250827DFF8B5
:102D30005C91904230D1186840F480101860186897
:102D400000F480100590086840F0040008600868EE
:102D500000F004000590086840F00800086008686A
:102D600000F00800059088148DE85100CDE9035764
:102D700069464846FDF7DAFE04208DE85100CDE9AA
:102D8000035769464248FDF7D1FE00220121352054
:102D9000FEF72EF9352027E03B4ADFF8F8C0121D78
:102DA0004FF00708604524D1106840F01000106013
:102DB000106800F010000590086840F001000860FD
:102DC0000868694600F0010005904FF4C0608DE886
:102DD0005100CDE903583048FDF7A8FE002201213B
:102DE0002520FEF705F92520FEF7F4F807B0BDE829
:102DF000F083DFF8A8C0604520D1186840F4802037
:102E00001860186800F480200590086840F00200FF
:102E100008600868694600F0020005904FF44060C1
:102E20008DE85100CDE903581D48FDF77FFE0022D3
:102E300001212720FEF7DCF82720D5E7194B98421F
:102E4000D4D1106840F020001060106800F020001D
:102E50000590086840F0040008600868694600F0C2
:102E600004000590C0208DE85100CDE90357484685
:102E7000FDF75CFE002201214720FEF7B9F847204C
:102E8000B2E7000000500040403802400008024015
:102E9000000C0240001001400000024000480040C9
:102EA000000402400014014090F84230202B01D071
:102EB0000220704721B11AB10023036301F016B854
:102EC0000120704738B51849884224D11748427804
:102ED0000078A2F13001CCB20090234614A11C4826
:102EE000FDF742FA64231A4619490F4800F038F8F2
:102EF0000A2C04D800F010FEB7EE000A01E09FEDA6
:102F0000150A154800F0A2FE00EE104A1348B8EE6C
:102F1000400A80ED000ABDE8384004490122491CFE
:102F20000148FFF7C1BF0000C803002014000020C3
:102F3000646562756772783A2563206E756D3A250F
:102F4000642C72785F636E743A25640D0A00000089
:102F50005806002000000000A802002010000020F9
:102F60002DE9F843044690F841001F4615460E46E9
:102F7000202802D00220BDE8F8838EB185B1002060
:102F80006064212084F84100FDF7CAFEA5848146D3
:102F9000E584A0684FF02008B0F5805F02D003E020
:102FA0000120E8E7206910B1354600260EE0002533
:102FB0000CE08021204600F0B4FFA0B9BDB115F8A7
:102FC000010B21684860E08C401EE084E08C4B4699
:102FD0004FF0000200970028EBD14FF0400120464F
:102FE00000F09FFF40B184F841800320C3E736F82A
:102FF000020BC0F30800E4E784F841800020BAE740
:103000007047FEE7F0B500230A24302537261F4617
:1030100010E0B4EB107F02D905EB107C01E006EB69
:10302000107C01F813C001EB430C00015B1C8CF811
:103030000170DBB29342ECD3F0BDFDF75FBE000040
:103040000148FFF73DB900001802002010B502F05A
:103050004FFD024800218170C17010BD1800002092
:1030600089B20022FDF757BEFDF74DBE7FB50024A3
:10307000144800940194029411490394C0E9001487
:1030800084600461047680F820400F49C0E90A1486
:103090000125C561C46080F830404561FDF77EFCC4
:1030A00008B1FDF7D2FB0320CDE900056946029483
:1030B0000448FDF7CDFB002801D0FDF7C6FB7FBD1E
:1030C00000200140240100200100000F2DE9F04301
:1030D00087B014216846FDF7F5F93A4800240168E5
:1030E00041F004010160016801F0040105910168EB
:1030F00041F080010160016801F0800105910168E3
:1031000041F001010160016801F0010105910168D0
:1031100041F002010160016801F0020105910168BE
:1031200041F0080101600068274F00F008004FF4EB
:10313000C0750590002229463846FDF7ECFDDFF802
:103140008C804FF44476002231464046FDF7E3FD83
:10315000DFF87C9000224FF484514846FDF7DBFDF8
:10316000012220214846FDF7D6FD00950125CDE935
:103170000154694638460394FDF7D8FC0096CDE922
:103180000154694640460394FDF7D0FC20208DE8A9
:10319000310069464046FDF7C9FC02208DE8310048
:1031A00069464846FDF7C2FC4FF485500090CDE9D2
:1031B0000154694648460394FDF7B8FC07B0BDE8E2
:1031C000F083000030380240000002400008024056
:1031D000000402400D4810B50B4901600C494160E4
:1031E00000214FF480428160C0E903124161816196
:1031F000C1610162FDF79AFD002803D0BDE81040CF
:10320000FDF723BB10BD0000005400406C010020FE
:10321000A08601000F4810B50D4901604FF482717E
:10322000416000218160C1604FF400720161C0E91A
:103230000512C1610162416281620A21C162FEF729
:10324000B9FE002803D0BDE81040FDF7FEBA10BD5E
:1032500000380040C001002010B586B00024174897
:10326000009401940294039404941349059401601A
:103270005321C0E9011444F62061C0E903144461FC
:103280008461FEF79BFF08B1FDF7DFFA4FF4805031
:10329000009069460948FFF753F808B1FDF7D5FAE1
:1032A000049404A905480594FEF740FF002801D0C6
:1032B000FDF7CBFA06B010BD000001401802002057
:1032C00010B58EB000240794089409940A940B94C6
:1032D0001C2168460C94FDF7F5F81F481D49016054
:1032E0004FF40371C0E901146421C0E90314802183
:1032F0008161FEF763FF08B1FDF7A7FA4FF4805034
:10330000079007A91448FFF71BF808B1FDF79DFACD
:103310001148FFF7D8F908B1FDF797FA0B940BA9FC
:103320000D480C94FEF702FF08B1FDF78EFA6020FD
:10333000CDE9000402940022694607480494FFF78F
:103340005CF908B1FDF781FA0348FFF701F90EB007
:1033500010BD0000000400406002002010B58EB0D7
:1033600000240794089409940A940B941C2168463D
:103370000C94FDF7A7F81F481D49016041F28141F7
:10338000C0E901140A21C0E9031480218161FEF71C
:1033900015FF08B1FDF759FA4FF48050079007A9BF
:1033A0001448FEF7CDFF08B1FDF74FFA1148FFF7BB
:1033B0008AF908B1FDF749FA0B940BA90D480C9452
:1033C000FEF7B4FE08B1FDF740FA6020CDE9000435
:1033D00002940022694607480494FFF70EF908B1E9
:1033E000FDF733FA0348FFF7B3F80EB010BD000045
:1033F00000080040A802002010B58EB000240794F9
:10340000089409940A940B941C2168460C94FDF7C7
:1034100059F827482549016040F24731C0E90114B5
:103420004FF4FA61C0E9031480218161FEF7C6FE02
:1034300008B1FDF70AFA4FF48050079007A91C481D
:10344000FEF77EFF08B1FDF700FA1948FFF73BF9D8
:1034500008B1FDF7FAF90B940BA915480C94FEF787
:1034600065FE08B1FDF7F1F96020CDE90004029492
:10347000002269460E480494FFF7BFF808B1FDF733
:10348000E4F9042269460A48FFF7B7F808B1FDF7E6
:10349000DCF9082269460648FFF7AFF808B1FDF7E6
:1034A000D4F90348FFF754F80EB010BD000C0040EB
:1034B000F00200200C4810B50A4901604FF4E131D8
:1034C0004160002181600C22C160C0E90412816169
:1034D000C161FFF7E9FB002803D0BDE81040FDF70C
:1034E000B4B910BD00500040380300200C4810B59E
:1034F0000A4901604FF4E1314160002181600C22F2
:10350000C160C0E904128161C161FFF7CDFB0028F1
:1035100003D0BDE81040FDF798B910BD0010014080
:10352000800300200C4810B50A4901604FF4E131D6
:103530004160002181600C22C160C0E904128161F8
:10354000C161FFF7B1FB002803D0BDE81040FDF7D3
:103550007CB910BD00480040C80300200C4810B5DD
:103560000A4901604FF4E1314160002181600C2281
:10357000C160C0E904128161C161FFF795FB0028B9
:1035800003D0BDE81040FDF760B910BD0014014044
:103590001004002010B500220F49104801F032F944
:1035A00008B1FDF752F90E490C4801F046FB08B18D
:1035B000FDF74BF90B49094800F0C6FE08B1FDF7CD
:1035C00044F9064801F0BCFB002803D0BDE81040D8
:1035D000FDF73BB910BD000030000020200700209F
:1035E000EC00002080000020FEE7FEE70148FDF728
:1035F0007DBE00001C1E00202DE9F0410668054636
:103600000C46306C06EB4411D1F8083B95F806C027
:103610004FF400474FF0200E05F29C42BCF1010F21
:1036200008D0DFF898C0604538D1180431D5C1F80A
:10363000087B3FE0224E5FEA037C04D5B04239D9D3
:103640001804F4D436E05FEA836C02D5C1F808EBC5
:1036500030E013F0280F2DD1B04201D91804E6D480
:1036600004EBC40005EB8000D1F8101BD0F87432D5
:10367000C1F31201591AC0F8681200F51570ACB9FF
:1036800003691BB1C2681144C1600FE001212868C1
:103690000AE098060AD5C1F808EB07E034B9D5F876
:1036A000640218B90021304601F0C0FEE1B228469C
:1036B000FDF704FD0020BDE8F08100000A31544F01
:1036C0000A30544F2DE9F84F0E4601EBC60100EBCE
:1036D00081048146D0F80080D4E90910143488426E
:1036E00002D90120BDE8F88F081AA168814200D2F2
:1036F0000846C01C870808EB461A15E0451AA06862
:10370000A84200D20546E81C870899F806000090F8
:10371000ABB2F2B24046E16802F0C6F9E068284474
:10372000E060606928446061DAF8180980B2B84244
:1037300005D3D4E90401814201D20028DED1D4E9C5
:103740000401884208D806F00F0101208840D8F80B
:1037500034188143C8F834180020C3E77047704715
:103760000178407841EA00207047FDF7D9BB00009E
:1037700010B592B030216846FCF7A4FE14210CA8C5
:10378000FCF7A0FE1C48016841F080510160006810
:1037900000F0805011901948016841F480410160A7
:1037A0000068022400F48040119001200090000481
:1037B00001908001CDE9064004200890A820CDE9C1
:1037C000090407200B906846FEF748FA08B172B664
:1037D000FEE70F20CDE90C0480200E9040010F90F1
:1037E000109002210CA8FEF749F9002801D072B60A
:1037F000FEE712B010BD00004038024000700040EB
:103800000248016841F470010160704788ED00E0F2
:103810000148FEF704BE0000180200200148FEF730
:10382000FEBD0000600200200148FEF7F8BD000068
:10383000A8020020F0B50268294D2A4E2A4FDFF871
:10384000ACC02B4B4FF0804EA84209D0704507D03A
:10385000B04205D0B84203D0604501D0984203D1B0
:1038600022F070044A682243A8421BD0704519D048
:10387000B04217D0B84215D0604513D0984211D04D
:103880001C4CA0420ED01C4CA0420BD01B4CA042A2
:1038900008D01B4CA04205D01A4CA04202D01A4CB2
:1038A000A04203D122F44074CA6822434C6922F03A
:1038B0008002224302608A68C2620A688262A84269
:1038C00001D0984201D10969016301214161016977
:1038D000C90703D0016921F001010161F0BD0000B9
:1038E000000001400004004000080040000C0040BF
:1038F00000040140004001400044014000480140F4
:1039000000180040001C00400020004010B501F0ED
:103910001F010123046A8B409C430462036A8A40AE
:103920001343036210BD10B5846842EA032224F4F5
:103930007F440A432243826010BD826822F07002F5
:103940000A4342F00701816070470000F0B5026A47
:10395000036A23F00103036243688469114E24F073
:1039600073050C68104F2C4322F002058A682A4325
:10397000B04201D0B84205D122F00805CA682A43F6
:1039800022F00402B04201D0B84205D14D6923F4BF
:1039900040731D438B692B434360846149684163D5
:1039A0000262F0BD0000014000040140F0B5026A6F
:1039B000036A23F010030362436884690D6824F4EA
:1039C000E64444EA05248D6822F0200242EA05120A
:1039D0000F4D104EA84201D0B04206D1CF6822F060
:1039E000800242EA071222F04002A84201D0B0420F
:1039F00007D14D6923F4406343EA85038D6943EAA7
:103A0000850343608461496881630262F0BD000000
:103A10000000014000040140F0B5026A036A23F48B
:103A2000807303624368C46922F4007224F0730552
:103A30000C68124E2C438D6842EA05220E4DA842B6
:103A400001D0B04206D1CF6822F4006242EA0722D8
:103A500022F48062A84201D0B04207D14D6923F41C
:103A6000405343EA05138D6943EA05134360C4617B
:103A70004968C1630262F0BD0000014000040140DA
:103A800030B5036A026A22F4805202624268C46955
:103A90000D6824F4E64444EA05248D6823F40053B9
:103AA00043EA0533084DA84202D0084DA84204D18C
:103AB0004D6922F4804242EA85124260C46149683D
:103AC0000164036230BD00000000014000040140B9
:103AD00010B5046A036A23F001030362836923F0CB
:103AE000F00343EA021324F00A020A4383610262EC
:103AF00010BD10B5036A046A24F0100404628469DE
:103B000023F0A00324F4704444EA023243EA011192
:103B10008261016210BD000010B5002280210E48B4
:103B200000F01EF8002220210B4800F019F80021B7
:103B30000948FEF793FE00221021084800F010F813
:103B400000228021054800F00BF8BDE8104000215C
:103B50000248FEF783BE0000A80200206002002099
:103B60001B4B10B5984214D1102908D080292DD1B3
:103B7000184C4FF000013AB1FEF7F4FE1EE0164873
:103B800002B10122102114E0FEF768FE18E0802146
:103B90000EE0124B984219D1114C80290DD02029EA
:103BA00014D14FF000016AB1FEF7DCFE01222021A2
:103BB0002046BDE81040FDF7AEB80AB10122E6E7A5
:103BC0000022E4E7FEF74AFE0022F0E710BD000005
:103BD000600200200000024000080240A80200200D
:103BE0000004024010B5144C002220212046FDF7AD
:103BF00092F8002280212046FDF78DF800228021D6
:103C00000E48FDF788F8002210210D48FDF783F8D3
:103C100000210C48FEF7A6FE0A480068C16A490860
:103C2000416300210848FEF79DFE07480068C16A0D
:103C30004908416310BD000000040240000002403A
:103C400000080240A80200206002002030B4DFED2E
:103C5000150A026860EE200AD16A4FF6FE74491E0A
:103C600000EE101AB8EE400A20EE800ADFED0E0AD0
:103C700080EE801ABCEEC10A10EE101A4B1EA34251
:103C800002D2916230BC704708494FF0010288426D
:103C900002D12021054801E00548802130BCFFF712
:103CA0005FBF00000000C844A037A04CA80200205D
:103CB000600200200148FEF7BFBE0000380300206C
:103CC00010B5806B0021C185C184FEF7B3FE10BD25
:103CD00001680C3151E8002F22F4907241E8002372
:103CE000002BF5D10168143151E8002F22F00102B8
:103CF00041E80023002BF5D1016B012909D10168AE
:103D00000C3151E8002F22F0100241E80023002B73
:103D1000F5D1202180F8421000210163704708B5D9
:103D200090F84210222901D0022008BD81684FF48A
:103D30008053994201D1026922B1826A99421BD013
:103D400049B10AE00268816A5268C2F308020A8037
:103D5000816A891C08E0016971B10168496801F054
:103D60007F011170816A491C8162C18D491E09045D
:103D7000090CC18503D01BE001684968F1E70168BF
:103D8000CA6822F02002CA600168CA6822F4807200
:103D9000CA6001684A6922F001024A61202180F864
:103DA000421000214163026B012A03D0FFF78AF819
:103DB000002008BD016301680C3151E8002F22F09A
:103DC000100241E80023002BF5D101680A68D206F1
:103DD00002D50A6849680091818DFEF72AFEE7E75F
:103DE00070B5044600680169E26821F4405111434E
:103DF0000161A1682069E2690143606910430143E0
:103E00002068C26849F20C639A430A43C260206882
:103E10004169A26921F4407111434161314920682F
:103E2000884202D03049884202D1FDF7D7FE01E036
:103E3000FDF7C4FEE2690023192164253226B2F59C
:103E4000004F626828D0A0FB0101930F9200FCF79D
:103E500013FA0146B0FBF5F06FF01802504301EB86
:103E6000800006EB0010B0FBF5F000F0F002B1FBB3
:103E7000F5F002EB0012B1FBF5F06FF018035843B8
:103E800001EB800006EB0010B0FBF5F000F00F0036
:103E900021681044886070BDA0FB010192185B414D
:103EA000FCF7EAF90146B0FBF5F00201B1FBF5F0D1
:103EB0006FF01803584301EB800006EBC000B0FB25
:103EC000F5F000F0F80002EB4002B1FBF5F05843CA
:103ED00001EB800006EBC000B0FBF5F000F007003E
:103EE000D6E7000000100140001401408162828585
:103EF000C28500214164222180F84210016921B16C
:103F00000168CA6842F48072CA6001684A6942F076
:103F100001024A610068C16841F02001C1600020CF
:103F200070472DE9F8431F4690460D460446089E0B
:103F300023E0701C21D0FCF7F3FEC01BB0421AD85E
:103F4000CEB12068C168490717D5802D15D0402D06
:103F500013D00168C94309070FD4016800254068E0
:103F600000902046FFF7B4FE0820606484F84050BB
:103F70000120BDE8F8830320FBE72068006835EAEC
:103F8000000004D000204045D3D00020F1E70120FC
:103F9000F9E700000148FEF74FBD00008003002054
:103FA0000148FEF749BD0000C80300200148FEF7A4
:103FB00043BD0000100400202DE9F0410D46D0F86B
:103FC000D412D0F8C86200EB8101D1F8C01229B335
:103FD00005F00F0303EB830200EB820200279469D4
:103FE0004CB103EBC30306EB8303DB69B4FBF3F6CD
:103FF00003FB1643A3B1C1F81472D0F8D42200EB2E
:104000008200D0F8C40203692BB1D1F808022A4615
:1040100001F5047198470020BDE8F0810320FBE71B
:10402000002397611A46294600F0E6FDF3E770B5D4
:104030000546D0F8D40205EB8000D0F8C04294B118
:10404000284600F0B9FCC4F80C02D5F8D412D4F814
:10405000040205EB8101D1F8C412CA6804F50371AA
:104060009047002070BD032070BD000070B5224D48
:104070000446297800F0E2FB2878002600F00F00C3
:1040800000EB800004EB800086846978204600F015
:10409000D5FB687800F00F0000EB800004EB800097
:1040A000A0F86461A978204600F0C8FBA87800F069
:1040B0000F0000EB800004EB80008684C684D4F8F7
:1040C000D40204EB8000D0F8C01299B1D0F8C40239
:1040D00040688047D4F8D40204EB8000D0F8C002D6
:1040E00000F0AFFFD4F8D40204EB8000C0F8C06247
:1040F000C4F8BC62002070BD9800002010B5D0F854
:10410000D41200EB8100D0F8C04284B1D0F8C412C0
:1041100059B194F80002FF2807D08B6894F8012267
:1041200021469847FF2084F80002002010BD03209C
:1041300010BD00000A210180004870479C0000204B
:1041400070B5064682210C4800F0FBFA05460121B5
:10415000094800F0F6FA04468121074800F0F1FA18
:104160000DB11021A971402104B1A18000B181805D
:1041700043203080004870BDA800002070B506467E
:1041800082210D4800F0DDFA054601210A4800F0C1
:10419000D8FA04468121084800F0D3FA0DB1102165
:1041A000A9714FF4007104B1A18000B18180432056
:1041B0003080014870BD0000A800002070B50646A0
:1041C00082210C4800F0BDFA05460121094800F0A3
:1041D000B8FA04468121074800F0B3FA0DB1102166
:1041E000A971402104B1A18000B1818043203080B9
:1041F000004870BDA80000202DE9F04704464FF4A8
:104200000776304600F01EFF05004FF0000863D02F
:104210003146FCF757F9D4F8D4023C4E04EB800049
:104220004FF01009C0F8C052C4F8BC52207C4FF4C3
:10423000007A0127F0B3402302223178204600F0B3
:1042400026FC3078402300F00F0000EB800004EBE8
:104250008000878402227178204600F018FC707874
:10426000082300F00F0000EB800004EB8000032225
:10427000A0F86471B07800F00F0000EB800004EB50
:104280008000A0F82690B178204600F000FCB078BD
:1042900000F00F0000EB800004EB80008784C5F87D
:1042A0000482D4F8D402474604EB8000D0F8C4025C
:1042B000006800E018E005F5017580472F616F6127
:1042C0002A687AB1207CF8B140237178204600F04A
:1042D000EAFB0020BDE8F087D4F8D41204EB81019A
:1042E000C1F8C0820220F5E7534602223178204609
:1042F00000F0CDFB3078534600F00F0000EB80005B
:1043000004EB80008784A5E75346DEE79800002091
:1043100010B5D0F8D41200EB8101D1F8C01259B118
:10432000027C084C002AD1F8042207D0402361788F
:1043300000F0B9FB002010BD032010BD4FF4007346
:10434000F5E700009800002039B1D0F8D42200EB46
:104350008200C0F8C4120020704703207047D0F8D4
:10436000D42200EB8200D0F8C00218B1C0F80412C9
:104370000020704703207047D0F8D43200EB830050
:10438000D0F8C00228B1C0F81022C0F808120020EE
:104390007047032070472DE9FC410646D0F8D4024F
:1043A0000C4606EB80000021D0F8C0728DF800109A
:1043B000ADF804100D4637B1217811F060022FD00E
:1043C000202A4BD102E00320BDE8FC81E288F2B153
:1043D00009060DD5D0F8C40294F801C039468368A7
:1043E00060469847E288072A00D9072239462DE01F
:1043F000607887F80002E088402800D34020C2B2ED
:1044000087F801223946304600F081F82BE0D0F8D9
:10441000C40266780022836821463046984722E02D
:10442000607830B101281ED00A2809D00B2815D198
:1044300010E096F89C02032810D1022201A905E0A1
:1044400096F89C02032809D101226946304600F003
:1044500078F808E096F89C02032804D021463046FC
:1044600000F04AF803252846AEE7000010B5D0F862
:10447000D41200EB8101D1F8C02201211AB1D2F887
:10448000143213B116E0032010BD0121C2F814123A
:104490000949D2F81042097801F00F0303EB8303B6
:1044A00000EB83039C61D2F81032D2F8082200F0AE
:1044B000A3FB0021084610BD9800002010B5D0F8DD
:1044C000B82200245268904700B10324204610BD52
:1044D0000020704700207047134610B50A4600219F
:1044E00000F0E1FA002010BD134610B50A46002185
:1044F00000F082FB002010BD10B50446802100F0C2
:104500005CFB2046BDE81040002100F056BB10B512
:104510000323C0F89432C0F858211346C0F85C2138
:104520000A46002100F0BFFA002010BD10B5052199
:10453000C0F8941200231A46194600F0B4FA00207D
:1045400010BD10B50223C0F8943282611346C261D7
:104550000A46002100F050FB002010BD10B50421D8
:10456000C0F8941200231A46194600F045FB0020BB
:1045700010BD000010B50A46024903A000F00FF973
:10458000004810BDFC09002043444320436F6E6681
:104590006967000012200880004870475000002022
:1045A00010B50A46024903A000F0F9F8004810BD12
:1045B000FC09002043444320496E746572666163C0
:1045C0006500000004200880004870474C0000206F
:1045D00010B50A46024903A000F0E1F8004810BDFA
:1045E000FC09002053544D6963726F656C656374F8
:1045F000726F6E696373000010B50A46024903A02A
:1046000000F0CDF8004810BDFC09002053544D3394
:1046100032205669727475616C20436F6D506F72F1
:104620007400000010B51A2008800A480168001DB7
:104630000468001D0068081809D008220649FEF722
:10464000E1FC0549042210312046FEF7DBFC02485C
:10465000801E10BD107AFF1F66000020F8B50446CA
:104660000020ADF8000048880D46010A08295FD2F5
:10467000DFE801F05E0409175E5E3D45D4F8B41230
:10468000207C0A6819E0207C02260028D4F8B802B1
:1046900005D0C16A684688470146467039E0816A9C
:1046A000F8E7C0B2062843D2DFE800F0030B11158B
:1046B000191DD4F8B402426806E0694690470146E5
:1046C00027E0D4F8B40282688AB3207CF5E7D4F8F6
:1046D000B402C268F8E7D4F8B4020269F4E7D4F887
:1046E000B4024269F0E7D4F8B4028269ECE7207CB6
:1046F000E8B9D4F8B802416B68468847DFE7207C08
:10470000A8B9D4F8B802016B68468847014607206B
:104710004870EA888AB1BDF8000040B1824200D9F1
:104720000246ADF800202046FFF70BFFF8BDFFE77B
:1047300029462046FFF7E0FEF8E72046FFF70EFF88
:10474000F4E778B50E4642880178002405468A428F
:1047500012D9ADF800100AE0694600F019F8417866
:10476000052904D181780446B14205D00024698826
:10477000BDF800209142EFD8204678BD002102E02C
:10478000491CC9B2401C0278002AF9D1084670477A
:104790000A8803781A440A8001780844704770B583
:1047A00016460D46002820D00446FFF7E7FF0221F9
:1047B00001EB40014FF40070814204D82046FFF71E
:1047C000DDFF4000801C3080307828700320687046
:1047D0000220002206E02954401CC0B22A54401C8A
:1047E000C0B2641C21780029F5D170BD01004FF0E2
:1047F000000004D0012901D0022901D00320704714
:104800000120704778B10023C0F8B832C0F8C43234
:10481000C0F8D03209B1C0F8B412012180F89C125E
:10482000027000F0CDB80320704710B5D0F8C80270
:10483000FCF786FCBDE81040FFF7D8BF10B5D0F8F4
:10484000C802FCF758FCBDE81040FFF7CFBF70B5B9
:1048500016460446002521B194F89C02032842D054
:104860004CE0D4F8941204F11400022935D1D0E9B7
:104870000232934206D99A1A826031462046FFF7E7
:1048800033FE0FE09A4214D14068904211D3D4F81D
:10489000981288420DD2002211462046FFF724FECE
:1048A000C4F8985200231A461946204600F0FBF837
:1048B00013E094F89C02032808D1D4F8B802C16828
:1048C00021B1C4F8D452C1682046884780212046CF
:1048D00000F073F92046FFF729FE94F8A00268B1B2
:1048E00084F8A0520AE0D4F8B802426932B1C4F8A0
:1048F000D452426920469047002800D1002070BD64
:1049000070B5134604460A004FF0000004D094F836
:104910009C12032931D03CE0D4F8941204F5AA7219
:10492000032936D1D2E90215A9420BD9481B906060
:104930002A46904200D31046024619462046FFF709
:10494000CBFD26E094F8AA1211F01F0103D0012933
:1049500002D0022900D0002094F89C12032908D12B
:10496000D4F8B8120A6922B1C4F8D4020969204601
:1049700088472046FFF7F2FD0BE0D4F8B8128B69A8
:104980003BB1C4F8D4028B691146204698470028F1
:1049900000D1002070BD0020704710B50024012117
:1049A00080F89C12D0F8B82222B152680179904761
:1049B00000B10324204610BDD0F8C802FCF7EDBBBF
:1049C00010B5017839BB15490222C1F8E004C0F8DE
:1049D000C8124FF0A040086004200871CA7100207E
:1049E00088714A728872C87208738873C8730846DF
:1049F000FCF72AFF08B1FBF728FF80210748FCF7E6
:104A00002AFB402200210548FCF729FB80220121D6
:104A10000248FCF724FB002010BD00001C1E0020F3
:104A20000A0601F07F01D0F8C80201EBC10100EBDA
:104A3000810001D5807D704790F85602704710B50F
:104A4000D0F8D42200EB8202D2F8B82222B190F83A
:104A50009C32032B02D004E0032010BD126A02B185
:104A60009047002010BD10B5D0F8D42200EB820290
:104A7000D2F8B82222B190F89C32032B02D004E085
:104A8000032010BD526A02B19047002010BD10B53E
:104A90001C461346D0F8C8022246FCF787FBBDE847
:104AA0001040FFF7A3BE10B5D0F8C802FCF7AFFB6B
:104AB000BDE81040FFF79ABE2DE9F0410025012620
:104AC000044680F89C62C4F894526560C4F8A4520D
:104AD00080F8A052D0F8B80230B1426822B100216B
:104AE0002046904700B1032500224023114620466E
:104AF000FFF7CDFF4027A4F864613B4600228021E8
:104B00002046C4F86071FFF7C2FFA68428462762DA
:104B1000BDE8F08190F89C12042903D190F89D1211
:104B200080F89C120020704710B590F89C12032961
:104B300005D1D0F8B81211B1C96901B18847002078
:104B400010BD01740020704710B5D0F8C802FCF702
:104B500041FFBDE81040FFF749BE70B5044600F2C2
:104B6000AA20054600F051F80120C4F89402B4F8D8
:104B7000B002C4F8980294F8AA2212F01F000AD0DA
:104B800001280ED0022812D02046BDE8704002F065
:104B9000800100F012B829462046BDE8704000F0C0
:104BA000D1B829462046BDE8704000F011BA294628
:104BB0002046BDE8704000F05BB910B5D0F8C802DF
:104BC000FCF741FBBDE81040FFF710BE10B5D0F870
:104BD000C802FCF719FFBDE81040FFF707BE90F8C8
:104BE0009C12042903D090F89C1280F89D12042195
:104BF00080F89C120020704710B5D0F8C802FCF76E
:104C00005BFBBDE81040FFF7F1BD70B5044611F83D
:104C1000010B207011F8010B60700D460846FEF77D
:104C20009FFDA91C60800D460846FEF799FDA080F7
:104C3000A81CFEF795FDE08070BD38B50446002045
:104C4000ADF80000A1B1C4F8B812D4F8D40204EB56
:104C50008000D0F8B802C16A19B168468847C4F824
:104C6000D002D4F8D802401CC4F8D802002038BDC5
:104C7000032038BD03460020D3F8B822002A02D012
:104C800012681846104770472DE9F04188462B4EB0
:104C90008978002504463170012906D9414620460D
:104CA000FFF72AFC0320BDE8F08194F89C0202275C
:104CB00002280CD003281DD041462046FFF71CFCDB
:104CC00031782046FFF7FAFB03252846EBE789B346
:104CD00020466160FFF7CEFF050004D04146204624
:104CE000FFF70AFC1DE02046FFF738FC032084F89C
:104CF0009C02EAE7C1B1606888421BD0C1B220467D
:104D0000FFF7DCFB317820466160FFF7B3FF050059
:104D100010D041462046FFF7EFFB21792046FFF7F0
:104D2000CDFB84F89C72D0E784F89C7220466160C9
:104D3000FFF7C4FB2046FFF711FCC6E794000020F4
:104D4000FFF744BF2DE9F0410A78002612F0600217
:104D50000CD0202A01D0402A7DD1D0F8D42200EBFB
:104D60008202D2F8B8229268904731E04A78002354
:104D700001250A2A6FD2DFE802F041666E586E08FC
:104D8000056E2D29FFF76AFC67E004468888D8B9CC
:104D9000C888C8B94888802816D200F07F0794F8E0
:104DA0009C02032810D084F89E7239462046FFF7F3
:104DB000CBFE2046FFF7D2FB1FB1022084F89C02F5
:104DC0004BE084F89C5248E0204644E0FFF75CFF4B
:104DD000064642E0CA88012A3DD190F89C22012A69
:104DE00004D0022A02D0032A35D104E0012200F1C6
:104DF0000801836016E00122011D13E090F89C2257
:104E0000012A03D0022A01D0032A24D1CA88022A07
:104E100021D1C560D0F8A41209B10321C1600222DA
:104E200000F10C01FFF78DFB17E04A88012A02D040
:104E3000022A03D00FE0C0F8A45216E08988090ABC
:104E400080F8A01211E090F89C22012A08D0022AD2
:104E500006D0032A04D0FFF74FFB3046BDE8F081AF
:104E600049880129F9D1C0F8A432FFF777FBF4E7AC
:104E70002DE9F041054608780C790E464FF0000800
:104E800010F060000BD0202801D040286AD12146C4
:104E90002846FFF71DFBFF2800D0D8B395E07078B7
:104EA000C8B3012824D003285CD195F89C020228BD
:104EB00002D0032856D10CE0002C53D0802C51D0C6
:104EC00021462846FFF779FE80212846FFF775FE28
:104ED0007BE0708840B93CB1802C05D0C88818B9F7
:104EE00021462846FFF769FE2846FFF737FB6CE0AE
:104EF00095F89C020228DFD0032863D1708880BB1C
:104F0000600603D021462846FFF78FFC2846FFF7AE
:104F100025FBBCE700E00AE0C5F8D402D5F8B802EA
:104F20008268F2B131462846904780464DE095F8B8
:104F30009C020027022802D0032843D113E00CB1C1
:104F4000802C3FD1200604F07F0000EB800005EBB1
:104F5000800101D5143101E001F5AA7102220F6030
:104F60002CE032E02EE0200604F00F0000EB800081
:104F700005EB800009D5808C20B304F07F0000EBA6
:104F8000800005EB800614360AE0B0F86401C8B171
:104F900004F07F0000EB800005EB800606F5AA76A2
:104FA0004CB1802C07D021462846FFF739FD10B1BF
:104FB0000120306000E03760022231462846FFF7CA
:104FC000C0FA02E02846FFF797FA4046BDE8F081B4
:104FD00070B50546087800240E4610F0600003D036
:104FE000202801D0402827D195F89C02012803D021
:104FF000022801D003281FD1B088C1B201291AD8D4
:10500000C1B22846FFF766FAFF280CD058B9D5F888
:10501000B8128A683AB1C5F8D4028A68314628467F
:105020009047044600E00324F088204307D1284637
:10503000FFF794FA03E031462846FFF75DFA204671
:1050400070BD704700487047FC1B002070B50A789F
:10505000012302F00F054E78AB401B4CD0F81C58D2
:10506000012E17D045EA0343C0F81C3800EB42106C
:10507000D0F8002B12040BD4D0F8002B0B8909793F
:10508000C3F30A031A4344EA81410A43C0F8002BE0
:10509000002070BD9BB21D43C0F81C5800EB4210AD
:1050A000D0F800391B04F3D4D0F800390D89097900
:1050B000C5F30A0589042B4341EA82510B4323437C
:1050C000C0F80039E4E7000000800010D0F80019B3
:1050D0006FF30A01C0F80019D0F8041841F4807188
:1050E000C0F804180020704770B50D460446C2F39E
:1050F000072004991E4601281BD0E06840F04000BC
:10510000E060204600F032F8C6F307210029A16BC9
:1051100026D021F48031A163C5F30741012907D1CD
:10512000A16841F00601A160A16841F02001A160E1
:1051300070BDA06B20F48030A063E0680A4A104084
:10514000E060E06820F44010E060C8B2012803D1BC
:10515000E06840F48010E060204600F007F8DBE7EC
:1051600041F48031D7E70000BFFFBDFF08B5002341
:105170004FF0706200930099491C009191420CD845
:1051800001690029F7DA0093016941F00101016129
:105190000099491C0091914201D9032008BD016981
:1051A000C907F5D1002008BD70B54C780A780123F5
:1051B00000EB4212012C2DD0D2F8004B002C0BDA60
:1051C000D2F8004B44F00064C2F8004BD2F8004B18
:1051D00044F08044C2F8004BD0F83C480D781E469D
:1051E00005F00F05AB4024EA0343C0F83C38D0F883
:1051F0001C48097801F00F0106FA01F324EA034183
:10520000C0F81C18D2F8000B19490840C2F8000B6E
:10521000002070BDD2F80049002C0BDAD2F800490A
:1052200044F00064C2F80049D2F8004944F08044D8
:10523000C2F80049D0F83C480D7805F00F061D462D
:10524000B3409BB29C43C0F83C48D0F81C48097856
:1052500001F00F0105FA01F399B28C43C0F81C4824
:10526000D2F8000903490840C2F80009D0E700005D
:105270000078F3EF007833ECD0F8001E21F0030142
:10528000C0F8001ED0F8041821F00201C0F804187C
:1052900000207047D0F8001E21F00301C0F8001E66
:1052A000D0F8041841F00201C0F80418002070473B
:1052B0002DE9F04F002604460F469246304635460B
:1052C00004EB8001C1F80451401C0F28F8D3C3F34C
:1052D00007405FEA000B204613D0806B20F40011DA
:1052E000A163A06B40F40021A163C4F8005ECAF37F
:1052F0000720012817D0D4F80018204641F00301F8
:1053000018E0D0F8040840F00201C4F80418A06BBB
:1053100040F40011A163A06B20F40021A163A06BF5
:1053200020F48021E0E7380ED4F80018204601D0A0
:1053300041F00101C0F80018102100F087FA00B117
:105340000126204600F066FA00B10126C4F8105884
:10535000C4F81458C4F81C5800204FF0006C4FF0EB
:1053600090434FF67F39FAB214E004EB4011D1F8C4
:105370000089B8F1000F06DA10B1C1F8003904E075
:10538000C4F800C901E0C1F80059C1F81059C1F8CA
:105390000899401C8242E8D8002014E004EB401138
:1053A000D1F8008BB8F1000F06DA10B1C1F8003B5C
:1053B00004E0C4F800CB01E0C1F8005BC1F8105B69
:1053C000C1F8089B401C8242E8D8D4F8100820F4A9
:1053D0008071C4F81018A5616FF080406061C7F358
:1053E000074018B9A06940F01000A061A0690A49FF
:1053F0000843A061CAF3074018B1A06940F0080053
:10540000A061BBF1010F03D1A06904490843A06169
:105410003046BDE8F08F000000383C8004000040BA
:10542000816821F0010181600020704710B5036C94
:10543000134CA34203D9D0F8003B002B1EDB002302
:10544000C0F8103BD0F8103B43F40023C0F8103BE9
:10545000D0F8103B43F01803C0F8103BD0F8103BD5
:1054600043F0C043C0F8103B012907D1C0F8142B0A
:10547000D0F8001B41F08021C0F8001B002010BDB7
:105480000A30544F4A780B78012A00EB43100BD0B6
:10549000D0F8002B22F40012C0F8002B0979032960
:1054A00014D0022912D017E0D0F8002922F40012FB
:1054B000C0F800290979032901D002290CD1D0F8BC
:1054C000001941F08051C0F8001905E0D0F8001B28
:1054D00041F08051C0F8001B002070470A784B78DB
:1054E000D1B200EB4110012B12D0D0F8001B0029E3
:1054F00006DB2AB1D0F8001B21F08041C0F8001B68
:10550000D0F8001B41F40011C0F8001B00207047C8
:10551000D0F80019002906DB2AB1D0F8001921F0D3
:105520008041C0F80019D0F8001941F40011C0F80A
:105530000019EBE7F8B50C784F788B4DE3B26FF0BC
:10554000604600EB4313012F29D0D3F8107B6FF393
:105550001207C3F8107BD3F8107B2F40C3F8107BE1
:10556000002C7DD00D69002D7BD08C6825446D1EEC
:10557000B5FBF4F5ADB26C430C62D3F8104B06EA00
:10558000C5452C43C3F8104BD3F8104B0D6AC5F337
:1055900012052C43C3F8104B012A70D0CBE00F69E1
:1055A000EFB1D3F810796FF31207C3F81079D3F87D
:1055B00010792F40C3F810790CB30F698D682F4410
:1055C0007F1EB7FBF5F5D3F81079ADB206EAC546F4
:1055D0003743C3F810790E79012E1CD02AE0D3F896
:1055E00010692E40C3F81069D3F8105945F400250E
:1055F000C3F81059D3F810596FF3120520E00E6963
:105600008D68AE4200D90D61D0F8105945F40026DE
:10561000C0F810690EE0D3F8106926F0C046C3F850
:105620001069D3F810694FF0C04707EA45752E435B
:10563000C3F81069D3F810590E69C6F31206354342
:10564000C3F81059012A1BD000EB4413D3F80049CA
:1056500044F00444C3F800490C79012C31D001E036
:1056600044E057E00A695AB3D0F83428097801F0C9
:105670000F03012199400A43C0F8342871E056E035
:10568000CA691AB100EB4413C3F814290979012936
:105690000ED1D0F80818C90500EB4411D1F8002943
:1056A00002D442F0005201E042F08052C1F80029D9
:1056B00000EB4410D0F8001941F00441C0F8001983
:1056C0004FE0D0F80848E405D3F8004902D444F08C
:1056D000005401E044F08054C3F8004900920A8A63
:1056E00093B20A78C96800F0DFF93AE00C690CB1AE
:1056F0008C680C618C680C62D0F8105BC4F31204E7
:105700002543C0F8105BD0F8104B44F40024C0F8D7
:10571000104B41E7D3F8104B8D68C5F312052C43AD
:10572000C3F8104BD3F8104B44F4002432E7CA6896
:105730000AB1C3F8142B097901290CD1D0F8080853
:10574000C005D3F8000B02D440F0005001E040F057
:105750008050C3F8000BD3F8000B40F00440C3F8AE
:10576000000B0020F8BD0000FFFF07E038B5002265
:1057700000920B784D7800EB431442F21073012D28
:1057800019D0D4F8005B002D3CDAD4F8005B45F06A
:105790000065C4F8005B0C7800EB4414D4F8005B9F
:1057A00045F08045C4F8005B009C641C00949C425A
:1057B00021D9012226E0D4F80059002D22DAD4F8AC
:1057C000005945F00065C4F800590C7800EB44140A
:1057D000D4F8005945F08045C4F80059009C641C79
:1057E00000949C42E5D80C7800EB4414D4F80049AE
:1057F000002CF3DB06E00C7800EB4414D4F8004BEB
:10580000002CD1DB104638BD816841F00101816078
:105810000020704708B500234FF070620093009994
:10582000491C009191420AD801690029F7DA102138
:10583000009301610099491C0091914201D9032014
:1058400008BD0169C906F5D4002008BD18B50024BB
:105850004FF070630094009A521C00929A420CD848
:105860000269002AF7DA202242EA811100940161DC
:105870000099491C0091994201D9032018BD016982
:105880008906F5D4002018BDD0F8080810F00600ED
:1058900004D0022803D0062801D00F207047022030
:1058A0007047406900F001007047D0F81818D0F830
:1058B0001C08084080B27047D0F81818D0F81C08AF
:1058C0000840000C704710B5D0F81038D0F83428D4
:1058D00001F00F0400EB4110E24002F00102D0F8A9
:1058E000080943EAC212104010BD00EB4111D1F883
:1058F000081BD0F8140808407047416980690840C7
:10590000704730B503460846940802F003010022B0
:1059100003F5805303E01D6840F8045B521CA2426B
:10592000F9D300290BD01C680022D50024FA05F316
:10593000491E521C090400F8013B090CF5D130BD89
:1059400070B50546C068002420F0C040E860012919
:1059500001D079B120E0E86840F00050E8600A200A
:10596000FBF7D2F868690A3410F0010F10D1C82C87
:10597000F5D30DE0E86840F08040E8600A20FBF7CE
:10598000C3F868690A3410F0010F01D0C82CF5D3B0
:10599000C82C01D0002070BD012070BDD0F80028B7
:1059A00022F4FE62C0F80028D0F800284FF4FE630D
:1059B00003EA01110A43C0F80028002070470000E4
:1059C000022A3ED1264A274B0A449A4201D20F218D
:1059D00038E0254A254B0A449A4201D20E2131E093
:1059E000234A244B0A449A4201D20D212AE0224A3A
:1059F000224B0A449A4201D20C2123E0204A214B37
:105A00000A449A4201D20B211CE01F4A1F4B0A4450
:105A10009A4201D20A2115E01D4A1E4B0A449A42BD
:105A20000FD31D4A1D4B0A449A4201D2082109E0B6
:105A30001B4A11441B4A914201D2072102E0062170
:105A400000E00921C26822F47052C260C2684FF4BB
:105A5000705303EA81210A43C260002070470000AE
:105A6000405327FF00350C00401E1BFF40420F0033
:105A700000DC0BFF804F1200808CF9FE20D6130053
:105A800060B6E5FE60E3160000D3CEFE40771B0053
:105A9000C05BB3FEC091210000CA91FE20753800A2
:105AA000E05459FEE09C410010B5029C6CB9DB1C2F
:105AB0009C0800EB0230002300F5805003E051F811
:105AC000042B02605B1CA342F9D3002010BDFEE74B
:105AD0000907090E002804DB00F1E02080F800141B
